:020000040800F2
:100000000000022079150008850400088704000814
:10001000890400088B0400088D040008000000001B
:100020000000000000000000000000008F04000835
:1000300091040008000000009304000895040008E3
:10004000C9150008C9150008C9150008C915000818
:10005000C9150008C9150008C9150008C915000808
:10006000C9150008C9150008C9150008C9150008F8
:10007000C9150008C9150008C9150008C9150008E8
:10008000C9150008C9150008C9150008C9150008D8
:10009000C9150008C9150008C9150008C9150008C8
:1000A000C9150008C9150008C9150008C9150008B8
:1000B000C9150008C9150008C9150008C9150008A8
:1000C000C9150008C9150008C9150008C915000898
:1000D000C9150008C9150008C9150008C915000888
:1000E000C9150008C915000800000000C91500085E
:1000F000C9150008C9150008C9150008C915000868
:10010000C9150008C9150008C9150008C915000857
:10011000C9150008C9150008C9150008C915000847
:10012000C9150008C9150008C9150008C915000837
:10013000C9150008C9150008C9150008C915000827
:10014000C9150008C91500080000000000000000E3
:10015000C9150008C9150008C9150008C915000807
:10016000C9150008C9150008C9150008C9150008F7
:10017000C9150008C9150008C9150008C9150008E7
:10018000C9150008C9150008C9150008C9150008D7
:10019000C9150008C9150008C9150008C9150008C7
:1001A000C9150008C9150008C9150008C9150008B7
:1001B000C9150008C9150008C9150008C9150008A7
:1001C000C9150008C9150008C9150008C915000897
:1001D000C9150008C9150008C9150008C915000887
:1001E000C9150008C9150008C9150008C915000877
:1001F000C9150008C9150008C9150008C915000867
:10020000C9150008C9150008C9150008C915000856
:10021000C9150008C9150008C9150008C915000846
:10022000C9150008C9150008C9150008000000001C
:10023000C9150008C9150008C9150008C915000826
:10024000C9150008C9150008C9150008C915000816
:10025000C9150008C9150008C9150008C915000806
:10026000C9150008C9150008C9150008C9150008F6
:10027000C9150008C9150008C9150008C9150008E6
:10028000C9150008C9150008C915000800000000BC
:08029000C9150008C91500089A
:1002980010B5054C237833B9044B13B10448AFF3B8
:1002A80000800123237010BD100000200000000012
:1002B8002416000808B5034B1BB103490348AFF3E4
:1002C800008008BD0000000014000020241600086B
:1002D800F0B589B000240394049405940694079417
:1002E8001D4BD3F8E02042F00202C3F8E020D3F817
:1002F800E02002F002020192019AD3F8E02042F0D5
:100308001002C3F8E020D3F8E03003F010030293A2
:10031800029B124F224644F20101384600F0E2FFE8
:100328000F4D01220221284600F0DCFF44F20103B0
:100338000393012604960594069403A9384600F011
:10034800C1FE0223039304960594069403A9284644
:1003580000F0B8FE09B0F0BD00440258000402588D
:100368000010025808B501224FF48041024800F0FD
:10037800B9FF72B6FEE700BF0004025800B59DB091
:100388004C22002109A801F01CF92022002101A813
:1003980001F017F9042000F0C3FF002300931E4B5F
:1003A800DA6A22F00102DA62DB6A03F001030093E1
:1003B8001A4A936923F4404343F480439361936951
:1003C80003F440430093009B144B9B6913F4005FB4
:1003D800FAD00223099301230C9340230D930023A1
:1003E800129309A800F0D0F888B93F23019300239D
:1003F80002930393049305930693079308930121AB
:1004080001A800F015FD20B91DB05DF804FBFFF749
:10041800A9FFFFF7A7FF00BF0004005800480258D3
:1004280000B583B000F0EEFFFFF7A8FF104BD3F83C
:10043800E02042F00072C3F8E020D3F8E03003F087
:1004480000730193019B002000F052FF0021084631
:1004580000F05EFFFFF73CFF01221146054800F05F
:1004680041FF00220221044800F03CFFFEE700BFE4
:10047800004402580004025800100258FEE7FEE744
:10048800FEE7FEE7FEE770477047704708B500F0E3
:10049800E7FF08BD82B0074BD3F8F42042F0020210
:1004A800C3F8F420D3F8F43003F002030193019B5E
:1004B80002B0704700440258002804DB0901C9B2A1
:1004C800044B1954704700F00F000901C9B2024BE0
:1004D8001954704700E400E014ED00E000B500F0A6
:1004E8000700C0F1070CBCF1040F28BF4FF0040C43
:1004F800031D062B0FD9C31E4FF0FF3E0EFA0CF05A
:1005080021EA000199400EFA03FE22EA0E0241EAAE
:1005180002005DF804FB0023EEE700000649CB6803
:1005280023F4E0631B041B0C000200F4E0600343A7
:10053800024A1A43CA60704700ED00E00000FA055D
:1005480010B50446054BD868C0F30220FFF7C6FF74
:1005580001462046FFF7B0FF10BD00BF00ED00E0E8
:100568000138B0F1807F0BD24FF0E0235861054A83
:10057800F02182F823100020986107221A61704741
:100588000120704700ED00E0002800F0398338B5FD
:100598000446036813F0010F25D0944A136903F049
:1005A8003803926A102B15D0182B0FD06368B3F557
:1005B800803F3FD0002B53D18C4B1A6822F48032F5
:1005C8001A601A6822F480221A6038E002F00302E6
:1005D800022AEBD1854B1B6813F4003F03D06368F4
:1005E800002B00F00F83236813F0020F00F0A180A6
:1005F8007E4A1369926A13F038035AD0182B55D0E3
:10060800E368002B00F0DE8078490A6822F01902BE
:1006180013430B6000F030FF0546744B1B6813F062
:10062800040F40F0AD8000F027FF401B0228F4D9EA
:100638000320EEE26D4A136843F480331360636865
:100648002BB300F019FF0546684B1B6813F4003FF5
:10065800C9D100F011FF401B6428F5D90320D8E266
:10066800B3F5A02F09D0614B1A6822F480321A60C2
:100678001A6822F480221A60E1E75C4B1A6842F497
:1006880080221A601A6842F480321A60D7E700F0B4
:10069800F3FE0546554B1B6813F4003FA3D000F04A
:1006A800EBFE401B6428F5D90320B2E212F0030FD9
:1006B800A6D14E4B1B6813F0040F03D0E368002B40
:1006C80000F0A282494A136823F01903E1680B433A
:1006D800136000F0D1FE0546444B1B6813F0040F6D
:1006E80006D100F0C9FE401B0228F5D9032090E28C
:1006F80000F0C8FE41F20303984212D82269402A4A
:1007080007D03A494B6823F47C3343EA02334B6001
:100718000FE0364A536823F47C3343F400335360C4
:1007280007E0324A536823F0FE43216943EA016334
:100738005360236813F0100F00F088802B4A136968
:1007480003F03803926A082B56D0182B50D0E3696F
:10075800002B00F0B880254A136843F0800313602B
:1007680000F08AFE0546214B1B6813F4807F40F099
:10077800888000F081FE401B0228F4D9032048E25B
:1007880000F080FE41F20303984212D82269402A01
:1007980007D016494B6823F47C3343EA02334B6095
:1007A800C7E7124A536823F47C3343F40033536099
:1007B800BFE70E4A536823F0FE43216943EA016309
:1007C8005360B6E7094A136823F00103136000F089
:1007D80053FE0546054B1B6813F0040FA9D000F023
:1007E8004BFE401B0228F5D9032012E200440258B0
:1007F80002F00302012AAAD1A14B1B6813F4807FDF
:1008080003D0E369802B40F0018200F03BFE41F207
:100818000303984212D8226A202A07D098494B68C5
:1008280023F0F84343EA82634B600FE0944A53682D
:1008380023F0F84343F08043536007E0904AD368BD
:1008480023F07C53216A43EA0163D360236813F0E1
:10085800080F60D06369002B49D0894A536F43F071
:100868000103536700F008FE0546854B5B6F13F0E4
:10087800020F50D100F000FE401B0228F5D90320DA
:10088800C7E100F0FFFD41F20303984212D8226A43
:10089800202A07D07A494B6823F0F84343EA826359
:1008A8004B60D3E7764A536823F0F84343F080431C
:1008B8005360CBE7724AD36823F07C53216A43EA3A
:1008C8000163D360C2E76E4A136823F080031360A4
:1008D80000F0D2FD05466A4B1B6813F4807FB5D043
:1008E80000F0CAFD401B0228F5D9032091E1644AB3
:1008F800536F23F00103536700F0BEFD0546604BBC
:100908005B6F13F0020F06D000F0B6FD401B022803
:10091800F5D903207DE1236813F0200F29D0A369BE
:100928009BB1574A136843F48053136000F0A4FD49
:100938000546534B1B6813F4005F1AD100F09CFD69
:10094800401B0228F5D9032063E14D4A136823F4BC
:100958008053136000F090FD0546494B1B6813F463
:10096800005F06D000F088FD401B0228F5D903205F
:100978004FE1236813F0040F21D1636A002B00F0C4
:1009880047813F4A126902F03802182A00F0EE80C7
:10099800022B79D03A4A136823F08073136000F071
:1009A8006BFD0446364B1B6813F0007F00F0DC80BB
:1009B80000F062FD001B0228F4D9032029E1314A26
:1009C800136843F48073136000F056FD05462D4B01
:1009D8001B6813F4807F06D100F04EFD401B64288D
:1009E800F5D9032015E1A368012B0AD00BBB244BD2
:1009F8001A6F22F001021A671A6F22F004021A67AE
:100A080004E01F4A136F43F001031367A36833B36D
:100A180000F032FD05461A4B1B6F13F0020FACD1E4
:100A280000F02AFD401B41F288339842F3D9032095
:100A3800EFE0052B09D0124B1A6F22F001021A675A
:100A48001A6F22F004021A67E0E70D4B1A6F42F0A2
:100A580004021A671A6F42F001021A67D6E700F01B
:100A68000BFD0546064B1B6F13F0020F85D000F0F7
:100A780003FD401B41F288339842F3D90320C8E0B4
:100A88000044025800480258694A136823F08073EA
:100A9800136000F0F1FC0546654B1B6813F0007FFE
:100AA80006D000F0E9FC401B0228F5D90320B0E08D
:100AB8005F4B996A5F4A0A40A16AE06A41EA0011FD
:100AC8000A439A62226B013AC2F30802616B013948
:100AD800490289B20A43A16B0139090401F4FE01F4
:100AE8000A43E16B0139090601F0FE410A431A6322
:100AF800DA6A22F00102DA625A6B6FF3CF02A16C54
:100B080042EAC1025A63DA6A22F00C02216C0A43F3
:100B1800DA62DA6A22F00202616C0A43DA62DA6A9D
:100B280042F48032DA62DA6A42F40032DA62DA6A6D
:100B380042F48022DA62DA6A42F00102DA621A6862
:100B480042F080721A6000F097FC0446384B1B682C
:100B580013F0007F06D100F08FFC001B0228F5D9A6
:100B6800032056E0002054E0002052E0304A916A09
:100B7800106B012B4ED001F00303A26A93424BD1B4
:100B8800C1F30511E36A994248D1C0F30802236B07
:100B9800013B9A4244D1C0F34622636B013B9A421F
:100BA80040D1C0F30642A36B013B9A423CD1C0F34B
:100BB8000660E36B013B984238D11D4B5B6BC3F376
:100BC800CC03A26C9A4201D1002022E0184AD36AD1
:100BD80023F00103D36200F04FFC054600F04CFC03
:100BE800A842FBD0124A536B6FF3CF03A16C43EAC0
:100BF800C1035363D36A43F00103D362002008E0C2
:100C080001207047012004E0012002E0012000E0FB
:100C1800002038BD0120FCE70120FAE70120F8E7B1
:100C28000120F6E70120F4E70120F2E70120F0E7D0
:100C3800004402580CFCFFFF754B1B6903F0380396
:100C4800102B00F0DE80182B0FD0002B40F0DB803B
:100C58006F4B1B6813F0200F00F0D7806C4B1B689C
:100C6800C3F3C1036B48D840704710B4684B9A6A05
:100C780002F003029C6AC4F30510D96A01F001016D
:100C88005B6BC3F3CC0301FB03F307EE903AF8EE7A
:100C9800677A14F47C7F77D0012A4AD0022A76D06A
:100CA800002A40F091805A4B1B6813F0200F23D084
:100CB80057490A68C2F3C102564BD34007EE103AAF
:100CC800F8EE476A07EE100AB8EE476A86EE867AAB
:100CD8000B6BC3F3080306EE903AF8EE666A9FEDD5
:100CE8004E6A67EE867A76EEA77AF7EE006A77EEB6
:100CF800A67A27EE277A38E007EE100AF8EE476A58
:100D08009FED466A86EE267A414B1B6BC3F30803B8
:100D180006EE903AF8EE666A9FED3F6A67EE867ACD
:100D280076EEA77AF7EE006A77EEA67A27EE277AAC
:100D38001BE007EE100AF8EE476A9FED396A86EE67
:100D4800267A334B1B6BC3F3080306EE903AF8EE92
:100D5800666A9FED316A67EE867A76EEA77AF7EED5
:100D6800006A77EEA67A27EE277A294B1B6BC3F326
:100D78004623013307EE903AF8EE677AC7EE276A02
:100D8800FCEEE67A17EE900A5DF8044B704707EE22
:100D9800100AF8EE476A9FED236A86EE267A1C4B06
:100DA8001B6BC3F3080306EE903AF8EE666A9FEDF4
:100DB8001A6A67EE867A76EEA77AF7EE006A77EE19
:100DC800A67A27EE277AD0E707EE100AF8EE476AE8
:100DD8009FED136A86EE267A0D4B1B6BC3F308034F
:100DE80006EE903AF8EE666A9FED0B6A67EE867A31
:100DF80076EEA77AF7EE006A77EEA67A27EE277ADC
:100E0800B3E709487047094870470248704700BF70
:100E1800004402580090D003000000390024744CAC
:100E28000024744A20BCBE4B40787D0100093D0077
:100E3800002800F0328170B50D4604469B4B1B68B4
:100E480003F00F038B420BD2984A136823F00F0369
:100E58000B431360136803F00F038B4240F01F81AC
:100E6800236813F0040F0CD02269914B9B6903F09F
:100E780070039A4205D98E498B6923F070031A438F
:100E88008A61236813F0080F0CD06269884BDB690C
:100E980003F070039A4205D98549CB6923F07003A2
:100EA8001A43CA61236813F0100F0CD0A269804B53
:100EB800DB6903F4E0639A4205D97D49CB6923F4E1
:100EC800E0631A43CA61236813F0200F0CD0E2696B
:100ED800774B1B6A03F070039A4205D974490B6A71
:100EE80023F070031A430A62236813F0020F0CD030
:100EF800E2686F4B9B6903F00F039A4205D96C496E
:100F08008B6923F00F031A438A61236813F0010FDA
:100F180041D0674A936923F47063A1680B439361D6
:100F28006368022B0AD0032B27D0012B2CD0604AF0
:100F3800126812F0040F06D10120ADE0126812F415
:100F4800003F00F0AE805A490A6922F007021343B5
:100F58000B6100F091FA0646554B1B6903F0380304
:100F68006268B3EBC20F16D000F086FA801B41F21C
:100F780088339842F0D903208EE04D4A126812F067
:100F8800007FE0D1012087E0494A126812F4807F8F
:100F9800D9D1012080E0236813F0020F0CD0E26859
:100FA800434B9B6903F00F039A4205D240498B6972
:100FB80023F00F031A438A613C4B1B6803F00F03AD
:100FC800AB420AD9394A136823F00F032B43136045
:100FD800136803F00F03AB4265D1236813F0040FC5
:100FE8000CD02269324B9B6903F070039A4205D2F8
:100FF8002F498B6923F070031A438A61236813F021
:10100800080F0CD062692A4BDB6903F070039A421F
:1010180005D22749CB6923F070031A43CA612368B4
:1010280013F0100F0CD0A269214BDB6903F4E063C5
:101038009A4205D21E49CB6923F4E0631A43CA6178
:10104800236813F0200F0CD0E269194B1B6A03F0D8
:1010580070039A4205D216490B6A23F070031A43AB
:101068000A62FFF7E9FD12498B69C3F30323114AAA
:10107800D35C03F01F03D8408B6903F00F03D35CE4
:1010880003F01F0320FA03F30B4A13600B4B18609D
:101098000B4B186800F08EF970BD012070470120D5
:1010A800FAE70120F8E70120F6E700BF0020005228
:1010B800004402583C160008080000200C000020DC
:1010C80004000020F0B583B000236BE085685E0063
:1010D8000324B44025EA0405CC68B4402C4384605A
:1010E800456825EA0C054C68C4F300149C402C4361
:1010F800446069E0DD08083550F8254003F0070C26
:101108004FEA8C0C4FF00F0E0EFA0CFE24EA0E0E6E
:101118000C6904FA0CF444EA0E0440F825406BE02C
:10112800092400E0002404FA0EF42C430CF1020C0C
:10113800694D45F82C404FF0B0442568D44325EA62
:1011480002064F6817F4801F01D042EA05064FF0E7
:10115800B0452E606D6804EA05064F6817F4001F55
:1011680001D042EA05064FF0B0456E60D5F88450CC
:1011780004EA05064F6817F4003F01D042EA050665
:101188004FF0B045C5F88460D5F880502C404E68C3
:1011980016F4803F01D042EA05044FF0B042C2F88D
:1011A800804001330A6832FA03F400F092804FF06D
:1011B800010C0CFA03FC1CEA0202F2D04C6804F0A1
:1011C8000304013C012C81D94C6804F00304032C6E
:1011D8000CD0C4685D004FF0030C0CFA05FC24EA3F
:1011E8000C0C8C68AC4044EA0C04C4604C6804F0F5
:1011F8000304022C3FF47EAF04684FEA430E4FF01D
:10120800030C0CFA0EFC24EA0C0C4C6804F00304E2
:1012180004FA0EF444EA0C0404604C6814F4403FE9
:10122800BFD02E4CD4F8F45045F00205C4F8F45061
:10123800D4F8F44004F002040194019C4FEA930CA2
:101248000CF10205244C54F8255003F0030E4FEA24
:101258008E0E0F2404FA0EF425EA0405204CA04251
:101268003FF460AF04F58064A04222D004F58064A6
:10127800A04220D004F58064A0421ED004F580640A
:10128800A0421CD004F58064A0421AD004F5806402
:10129800A04218D004F58064A04216D004F58064FA
:1012A800A04214D004F58064A0423FF439AF0A2468
:1012B80039E7012437E7022435E7032433E7042418
:1012C80031E705242FE706242DE707242BE7082418
:1012D80029E703B0F0BD00BF0004005800440258DD
:1012E800000002580AB181617047090481617047A2
:1012F8002030054B53F82020044B9A4201D001209E
:1013080070470020704700BF006402580003008047
:1013180041F44071014B43F82010704700640258B3
:1013280038B50446224BDB6803F00703062B07D0C9
:101338001F4BDB6803F03F03834236D0012038BDE2
:101348001B4AD36823F03F030343D36000F094F8AB
:101358000546174B5B6813F4005F07D100F08CF863
:10136800431BB3F57A7FF4D90120E8E72E2C18BF88
:101378001E2C08D02D2C14BF002301231D2C02D0B5
:101388000BB90020DBE700F077F80446084BDB6870
:1013980013F4803F07D100F06FF8001BB0F57A7F97
:1013A800F4D90120CBE70020C9E70020C7E700BF38
:1013B80000480258104B1B780BB90120704710B534
:1013C80004464FF47A70B0FBF3F30C4A1068B0FB94
:1013D800F3F0FFF7C5F868B90F2C01D901200AE02E
:1013E800002221464FF0FF30FFF7AAF8044B1C609B
:1013F800002000E0012010BD000000200C000020AB
:101408000400002010B50320FFF788F8FFF714FC4C
:101418000F498B69C3F303230E4AD35C03F01F0300
:10142800D8408B6903F00F03D35C03F01F0320FA45
:1014380003F3094A1360094B18600F20FFF7BAFF3E
:1014480010B10124204610BD0446FFF723F8F9E740
:10145800004402583C160008080000200C00002038
:10146800034B1B78034A11680B441360704700BF95
:10147800000000202C000020014B1868704700BFB6
:101488002C000020014B1868000C70470010005C0D
:101498002D4BD3F8882042F47002C3F888201A69CB
:1014A80042F010021A61294B1B6803F00F03062B48
:1014B80006D8264A136823F00F0343F00703136086
:1014C800234B1A6842F001021A6000221A61196857
:1014D800204A0A401A601D4B1B6813F0080F06D0FB
:1014E8001A4A136823F00F0343F007031360184BDD
:1014F80000229A61DA611A62174999621749D9621A
:10150800174919635A639963DA6319645A64196845
:1015180021F4802119601A664FF0B042D2F8E43005
:1015280043F48043C2F8E4300E4B1B686FF30F039B
:10153800B3F1005F03D20C4B0122C3F808210B4B17
:1015480043F2D2021A60704700ED00E0002000521A
:10155800004402587FEDF6EA000202020000FF0193
:10156800800201010010005C008000510040005220
:10157800DFF834D0FFF78CFF0C480D490D4A0023E3
:1015880002E0D458C4500433C4188C42F9D30A4A30
:101598000A4C002301E013600432A242FBD300F09E
:1015A80019F8FEF73DFF70470000022000000020F8
:1015B8001000002054160008100000203000002001
:1015C800FEE702440346934200D1704703F8011B2B
:1015D800F9E7000070B50D4D0D4C641BA4100026F2
:1015E800A64209D10B4D0C4C00F018F8641BA4104E
:1015F8000026A64205D170BD55F8043B9847013630
:10160800EEE755F8043B98470136F2E74C16000818
:101618004C1600084C16000850160008F8B500BF14
:10162800F8BC08BC9E467047F8B500BFF8BC08BCBB
:041638009E46704713
:10163C00000000000102030401020304060708096C
:04164C00BD020008D3
:0416500099020008F3
:1016540001000000100000000090D0030090D003AF
:040000050800157961
:00000001FF
