:020000040800F2
:1000000000000220653D00084D0700084F0700086A
:1000100051070008530700085507000800000000BA
:10002000000000000000000000000000570700086A
:1000300059070008000000005B0700085D07000882
:10004000B53D0008B53D0008B53D0008B53D0008C8
:10005000B53D0008B53D0008B53D0008B53D0008B8
:10006000B53D0008B53D0008B53D0008B53D0008A8
:10007000B53D0008B53D0008B53D0008B53D000898
:10008000B53D0008B53D0008B53D0008B53D000888
:10009000B53D0008B53D0008B53D0008B53D000878
:1000A000B53D0008B53D0008B53D0008B53D000868
:1000B000B53D0008B53D0008B53D0008B53D000858
:1000C000B53D0008B53D0008B53D0008B53D000848
:1000D000B53D0008B53D0008B53D0008B53D000838
:1000E000B53D0008B53D000800000000B53D000822
:1000F000B53D0008B53D0008B53D0008B53D000818
:10010000B53D0008B53D0008B53D0008B53D000807
:10011000B53D0008B53D0008B53D0008B53D0008F7
:10012000B53D0008B53D0008B53D0008B53D0008E7
:10013000B53D0008B53D0008B53D0008B53D0008D7
:10014000B53D0008B53D00080000000000000000BB
:10015000B53D0008B53D0008B53D0008B53D0008B7
:10016000B53D0008B53D0008B53D0008B53D0008A7
:10017000B53D0008B53D0008B53D0008B53D000897
:10018000B53D0008B53D0008B53D0008B53D000887
:10019000B53D0008B53D0008B53D0008B53D000877
:1001A000B53D0008B53D0008B53D0008B53D000867
:1001B000B53D0008B53D0008B53D0008B53D000857
:1001C000B53D0008B53D0008B53D0008B53D000847
:1001D000B53D0008B53D0008B53D0008B53D000837
:1001E000B53D0008B53D0008B53D0008B53D000827
:1001F000B53D0008B53D0008B53D0008B53D000817
:10020000B53D0008B53D0008B53D0008B53D000806
:10021000B53D0008B53D0008B53D0008B53D0008F6
:10022000B53D0008B53D0008B53D000800000000E0
:10023000B53D0008B53D0008B53D0008B53D0008D6
:10024000B53D0008B53D0008B53D0008B53D0008C6
:10025000B53D0008B53D0008B53D0008B53D0008B6
:10026000B53D0008B53D0008B53D0008B53D0008A6
:10027000B53D0008B53D0008B53D0008B53D000896
:10028000B53D0008B53D0008B53D00080000000080
:08029000B53D0008B53D000872
:1002A00001F0FF01102A2BDB10F0070F08D010F827
:1002B000013B013A8B422DD010F0070F42B3F6D12B
:1002C000F0B441EA012141EA014122F007047FF044
:1002D00000070023F0E80256083C85EA010586EA9B
:1002E000010685FA47F5A3FA87F586FA47F6A5FAD7
:1002F00087F68EB9EED1F0BC01F0FF0102F00702E3
:1003000032B110F8013B013A83EA010313B1F8D18D
:100310000020704701387047002D06BF354603386E
:10032000073815F0010F07D1013015F4807F02BFA7
:10033000013015F4C03F0130F0BC0138704700BFF8
:1003400053B94AB9002908BF00281CBF4FF0FF313C
:100350004FF0FF3000F00CB8ADF1080C6DE904CEA1
:1003600004F0EEFCDDF804E0DDE9022304B07047A0
:10037000704700BF10B5054C237833B9044B13B157
:100380000448AFF300800123237010BD6C000020EF
:1003900000000000E04F000808B5034B1BB1034903
:1003A0000348AFF3008008BD00000000700000208B
:1003B000E04F00082DE9F0418AB00024059406942E
:1003C000079408940994364BD3F8E02042F00102D8
:1003D000C3F8E020D3F8E02002F001020192019A74
:1003E000D3F8E02042F00202C3F8E020D3F8E02086
:1003F00002F002020292029AD3F8E02042F00802D0
:10040000C3F8E020D3F8E02002F008020392039A38
:10041000D3F8E02042F01002C3F8E020D3F8E03037
:1004200003F010030493049B1E4E22460121304624
:1004300002F028FA01224FF48041304602F022FAFD
:10044000DFF8688001224FF48041404602F01AFA3A
:10045000154F01220221384602F014FA44F201033A
:100460000593012506950794089405A9304602F0E6
:10047000F9F84FF48043059306950794089405A96D
:10048000404602F0EFF8022305930695079408947E
:1004900005A9384602F0E6F80AB0BDE8F08100BFD1
:1004A000004402580004025800100258000C025880
:1004B00010B514464FF0FF3392B2024803F0C2FA6F
:1004C000204610BD8800002008B501224FF480416D
:1004D000024802F0D7F972B6FEE700BF00040258E6
:1004E00008B51348134B03604FF4800343600023A7
:1004F00083600722C260036143614FF080628261C2
:100500004FF08042C261036243628362C36242630E
:100510008363C363036443648364C36403654365A3
:10052000836502F09DFB00B908BDFFF7CDFF00BF5A
:100530001C0100200030014008B51548154B036030
:100540004FF4E133436000238360C36003610C22F6
:1005500042618361C36103624362836203F03FFBD4
:1005600070B900210A4803F0B2FB58B900210848CD
:1005700003F0D2FB40B9064803F08AFB30B908BD4E
:10058000FFF7A2FFFFF7A0FFFFF79EFFFFF79CFF1B
:10059000880000200048004000B59DB04C2200219A
:1005A00009A803F013FE2022002101A803F00EFE8B
:1005B000042002F085F900230093254BDA6A22F02B
:1005C0000102DA62DB6A03F001030093214A9369B6
:1005D00023F4404343F480439361936903F440431D
:1005E0000093009B1B4B9B6913F4005FFAD002231E
:1005F000099301220C9240220D9212930022139231
:1006000004221492092215921693179318930C2220
:1006100019921A934FF440631B9309A800F0CEF986
:1006200090B93F230193002302930393049305930E
:100630004022069207930893012101A800F012FEC0
:1006400020B91DB05DF804FBFFF73EFFFFF73CFF4C
:10065000000400580048025800B587B002F0A2F923
:10066000FFF79AFF304BD3F8E02042F00072C3F856
:10067000E020D3F8E03003F000730493049B0020E3
:1006800002F006F90021084602F012F9FFF792FE87
:10069000FFF726FFFFF750FF01221146234802F023
:1006A000F1F800220221224802F0ECF801224FF476
:1006B0008041204802F0E6F81F4803F0A7FC002321
:1006C000ADF8143013E001224FF48041194802F0D4
:1006D000D9F89DF815209DF81410184803F02EFC49
:1006E0009DF80D209DF80C10154803F027FC4FF4E1
:1006F0007A7002F097F99DF8153001338DF81530B6
:100700000022ADF80C204FF480410A4802F0BAF8FC
:100710000C4B0093022303AA05A90B4802F068FBC7
:100720000028D0D0FFF7D0FE004402580004025841
:1007300000100258000C0258F84F0008085000083A
:100740002050000880F0FA021C010020FEE7FEE7BE
:10075000FEE7FEE7FEE770477047704708B502F016
:100760004FF908BD82B0074BD3F8F42042F00202E3
:10077000C3F8F420D3F8F43003F002030193019B93
:1007800002B070470044025870B5BAB00446002168
:1007900035913691379138913991C02204A803F0F0
:1007A00015FD2268274B9A4201D03AB070BD4FF434
:1007B00080520023CDE9042304A800F0EBFF0028B9
:1007C0003CD1214BD3F8F02042F48052C3F8F02002
:1007D000D3F8F02002F480520192019AD3F8E0207D
:1007E00042F00102C3F8E020D3F8E02002F0010259
:1007F0000292029AD3F8E02042F00202C3F8E0200D
:10080000D3F8E03003F002030393039B6023359396
:10081000022636960024379438940525399535A953
:100820000A4801F01FFF20233593369637943894F9
:10083000399535A9064801F015FFB6E7FFF744FEE4
:10084000BFE700BF003001400044025800000258DA
:100850000004025810B5B8B0044600213391349119
:10086000359136913791C02202A803F0AFFC22687F
:100870001B4B9A4201D038B010BD02220023CDE9B3
:10088000022302A800F086FF38BB164BD3F8E820FD
:1008900042F48022C3F8E820D3F8E82002F4802252
:1008A0000092009AD3F8E02042F00802C3F8E0205A
:1008B000D3F8E03003F008030193019B4FF4407339
:1008C00033930223349300233593369307233793CE
:1008D00033A9054801F0C6FECDE7FFF7F5FDD4E7E3
:1008E0000048004000440258000C0258002804DB75
:1008F0000901C9B2044B1954704700F00F000901F7
:10090000C9B2024B1954704700E400E014ED00E056
:1009100000B500F00700C0F1070CBCF1040F28BFC0
:100920004FF0040C031D062B0FD9C31E4FF0FF3EE2
:100930000EFA0CF021EA000199400EFA03FE22EAB9
:100940000E0241EA02005DF804FB0023EEE700001E
:100950000649CB6823F4E0631B041B0C000200F47F
:10096000E0600343024A1A43CA60704700ED00E0AA
:100970000000FA0510B50446054BD868C0F3022004
:10098000FFF7C6FF01462046FFF7B0FF10BD00BFCE
:1009900000ED00E00138B0F1807F0BD24FF0E02392
:1009A0005861054AF02182F823100020986107223F
:1009B0001A6170470120704700ED00E0002800F048
:1009C000398338B50446036813F0010F25D0944AE3
:1009D000136903F03803926A102B15D0182B0FD02F
:1009E0006368B3F5803F3FD0002B53D18C4B1A681E
:1009F00022F480321A601A6822F480221A6038E0E9
:100A000002F00302022AEBD1854B1B6813F4003F6E
:100A100003D06368002B00F00F83236813F0020FEC
:100A200000F0A1807E4A1369926A13F038035AD00D
:100A3000182B55D0E368002B00F0DE8078490A6857
:100A400022F0190213430B6001F0E6FF0546744BD8
:100A50001B6813F0040F40F0AD8001F0DDFF401B78
:100A60000228F4D90320EEE26D4A136843F4803380
:100A7000136063682BB301F0CFFF0546684B1B681A
:100A800013F4003FC9D101F0C7FF401B6428F5D91A
:100A90000320D8E2B3F5A02F09D0614B1A6822F4E5
:100AA00080321A601A6822F480221A60E1E75C4BF7
:100AB0001A6842F480221A601A6842F480321A607E
:100AC000D7E701F0A9FF0546554B1B6813F4003F1B
:100AD000A3D001F0A1FF401B6428F5D90320B2E2A6
:100AE00012F0030FA6D14E4B1B6813F0040F03D076
:100AF000E368002B00F0A282494A136823F019032F
:100B0000E1680B43136001F087FF0546444B1B6807
:100B100013F0040F06D101F07FFF401B0228F5D926
:100B2000032090E201F092FF41F20303984212D8B1
:100B30002269402A07D03A494B6823F47C3343EAC0
:100B400002334B600FE0364A536823F47C3343F49E
:100B50000033536007E0324A536823F0FE432169B3
:100B600043EA01635360236813F0100F00F088809C
:100B70002B4A136903F03803926A082B56D0182BBE
:100B800050D0E369002B00F0B880254A136843F089
:100B90008003136001F040FF0546214B1B6813F4EE
:100BA000807F40F0888001F037FF401B0228F4D995
:100BB000032048E201F04AFF41F20303984212D8B1
:100BC0002269402A07D016494B6823F47C3343EA54
:100BD00002334B60C7E7124A536823F47C3343F473
:100BE00000335360BFE70E4A536823F0FE43216988
:100BF00043EA01635360B6E7094A136823F001032F
:100C0000136001F009FF0546054B1B6813F0040F44
:100C1000A9D001F001FF401B0228F5D9032012E200
:100C20000044025802F00302012AAAD1A14B1B681A
:100C300013F4807F03D0E369802B40F0018201F040
:100C400005FF41F20303984212D8226A202A07D0F6
:100C500098494B6823F0F84343EA82634B600FE006
:100C6000944A536823F0F84343F08043536007E00D
:100C7000904AD36823F07C53216A43EA0163D3602E
:100C8000236813F0080F60D06369002B49D0894AAC
:100C9000536F43F00103536701F0BEFE0546854BD9
:100CA0005B6F13F0020F50D101F0B6FE401B02281B
:100CB000F5D90320C7E101F0C9FE41F203039842D0
:100CC00012D8226A202A07D07A494B6823F0F843C9
:100CD00043EA82634B60D3E7764A536823F0F843D4
:100CE00043F080435360CBE7724AD36823F07C53D0
:100CF000216A43EA0163D360C2E76E4A136823F0B6
:100D00008003136001F088FE05466A4B1B6813F4EC
:100D1000807FB5D001F080FE401B0228F5D903206A
:100D200091E1644A536F23F00103536701F074FEAD
:100D30000546604B5B6F13F0020F06D001F06CFEAE
:100D4000401B0228F5D903207DE1236813F0200F12
:100D500029D0A3699BB1574A136843F480531360A9
:100D600001F05AFE0546534B1B6813F4005F1AD17D
:100D700001F052FE401B0228F5D9032063E14D4AE1
:100D8000136823F48053136001F046FE0546494B77
:100D90001B6813F4005F06D001F03EFE401B0228E2
:100DA000F5D903204FE1236813F0040F21D1636AC2
:100DB000002B00F047813F4A126902F03802182ADE
:100DC00000F0EE80022B79D03A4A136823F080734A
:100DD000136001F021FE0446364B1B6813F0007FC0
:100DE00000F0DC8001F018FE001B0228F4D903207B
:100DF00029E1314A136843F48073136001F00CFE5B
:100E000005462D4B1B6813F4807F06D101F004FECC
:100E1000401B6428F5D9032015E1A368012B0AD0F3
:100E20000BBB244B1A6F22F001021A671A6F22F0D3
:100E300004021A6704E01F4A136F43F001031367AB
:100E4000A36833B301F0E8FD05461A4B1B6F13F09E
:100E5000020FACD101F0E0FD401B41F28833984213
:100E6000F3D90320EFE0052B09D0124B1A6F22F0C3
:100E700001021A671A6F22F004021A67E0E70D4BAD
:100E80001A6F42F004021A671A6F42F001021A67E1
:100E9000D6E701F0C1FD0546064B1B6F13F0020FAC
:100EA00085D001F0B9FD401B41F288339842F3D957
:100EB0000320C8E00044025800480258694A1368F9
:100EC00023F08073136001F0A7FD0546654B1B6896
:100ED00013F0007F06D001F09FFD401B0228F5D9DA
:100EE0000320B0E05F4B996A5F4A0A40A16AE06A5A
:100EF00041EA00110A439A62226B013AC2F30802E6
:100F0000616B0139490289B20A43A16B01390904B5
:100F100001F4FE010A43E16B0139090601F0FE41CB
:100F20000A431A63DA6A22F00102DA625A6B6FF33B
:100F3000CF02A16C42EAC1025A63DA6A22F00C02C3
:100F4000216C0A43DA62DA6A22F00202616C0A4317
:100F5000DA62DA6A42F48032DA62DA6A42F4003241
:100F6000DA62DA6A42F48022DA62DA6A42F0010274
:100F7000DA621A6842F080721A6001F04DFD044690
:100F8000384B1B6813F0007F06D101F045FD001BB4
:100F90000228F5D9032056E0002054E0002052E05A
:100FA000304A916A106B012B4ED001F00303A26A04
:100FB00093424BD1C1F30511E36A994248D1C0F382
:100FC0000802236B013B9A4244D1C0F34622636B73
:100FD000013B9A4240D1C0F30642A36B013B9A42C7
:100FE0003CD1C0F30660E36B013B984238D11D4B06
:100FF0005B6BC3F3CC03A26C9A4201D1002022E0C8
:10100000184AD36A23F00103D36201F005FD0546B7
:1010100001F002FDA842FBD0124A536B6FF3CF03DD
:10102000A16C43EAC1035363D36A43F00103D36263
:10103000002008E001207047012004E0012002E0C8
:10104000012000E0002038BD0120FCE70120FAE784
:101050000120F8E70120F6E70120F4E70120F2E79C
:101060000120F0E7004402580CFCFFFF754B1B69A0
:1010700003F03803102B00F0DE80182B0FD0002B6C
:1010800040F0DB806F4B1B6813F0200F00F0D7801F
:101090006C4B1B68C3F3C1036B48D840704710B456
:1010A000684B9A6A02F003029C6AC4F30510D96A7D
:1010B00001F001015B6BC3F3CC0301FB03F307EE0B
:1010C000903AF8EE677A14F47C7F77D0012A4AD000
:1010D000022A76D0002A40F091805A4B1B6813F008
:1010E000200F23D057490A68C2F3C102564BD340A0
:1010F00007EE103AF8EE476A07EE100AB8EE476AB4
:1011000086EE867A0B6BC3F3080306EE903AF8EE90
:10111000666A9FED4E6A67EE867A76EEA77AF7EEFC
:10112000006A77EEA67A27EE277A38E007EE100AF3
:10113000F8EE476A9FED466A86EE267A414B1B6BB6
:10114000C3F3080306EE903AF8EE666A9FED3F6A35
:1011500067EE867A76EEA77AF7EE006A77EEA67AE1
:1011600027EE277A1BE007EE100AF8EE476A9FED9C
:10117000396A86EE267A334B1B6BC3F3080306EEFF
:10118000903AF8EE666A9FED316A67EE867A76EEFF
:10119000A77AF7EE006A77EEA67A27EE277A294B30
:1011A0001B6BC3F34623013307EE903AF8EE677AE0
:1011B000C7EE276AFCEEE67A17EE900A5DF8044B5C
:1011C000704707EE100AF8EE476A9FED236A86EE35
:1011D000267A1C4B1B6BC3F3080306EE903AF8EE1D
:1011E000666A9FED1A6A67EE867A76EEA77AF7EE60
:1011F000006A77EEA67A27EE277AD0E707EE100A84
:10120000F8EE476A9FED136A86EE267A0D4B1B6B4C
:10121000C3F3080306EE903AF8EE666A9FED0B6A98
:1012200067EE867A76EEA77AF7EE006A77EEA67A10
:1012300027EE277AB3E70948704709487047024804
:10124000704700BF004402580090D00300000039EE
:101250000024744C0024744A20BCBE4B40787D01AD
:1012600000093D00002800F0328170B50D460446AB
:101270009B4B1B6803F00F038B420BD2984A1368F9
:1012800023F00F030B431360136803F00F038B422B
:1012900040F01F81236813F0040F0CD02269914B9A
:1012A0009B6903F070039A4205D98E498B6923F03C
:1012B00070031A438A61236813F0080F0CD0626927
:1012C000884BDB6903F070039A4205D98549CB69E5
:1012D00023F070031A43CA61236813F0100F0CD077
:1012E000A269804BDB6903F4E0639A4205D97D492A
:1012F000CB6923F4E0631A43CA61236813F0200F1B
:101300000CD0E269774B1B6A03F070039A4205D94F
:1013100074490B6A23F070031A430A62236813F0BE
:10132000020F0CD0E2686F4B9B6903F00F039A42E7
:1013300005D96C498B6923F00F031A438A6123682E
:1013400013F0010F41D0674A936923F47063A168D9
:101350000B4393616368022B0AD0032B27D0012B28
:101360002CD0604A126812F0040F06D10120ADE0C3
:10137000126812F4003F00F0AE805A490A6922F068
:10138000070213430B6101F047FB0646554B1B69EF
:1013900003F038036268B3EBC20F16D001F03CFBD8
:1013A000801B41F288339842F0D903208EE04D4AE9
:1013B000126812F0007FE0D1012087E0494A1268EC
:1013C00012F4807FD9D1012080E0236813F0020F4E
:1013D0000CD0E268434B9B6903F00F039A4205D29D
:1013E00040498B6923F00F031A438A613C4B1B6809
:1013F00003F00F03AB420AD9394A136823F00F03F5
:101400002B431360136803F00F03AB4265D12368CD
:1014100013F0040F0CD02269324B9B6903F0700368
:101420009A4205D22F498B6923F070031A438A61CF
:10143000236813F0080F0CD062692A4BDB6903F0B4
:1014400070039A4205D22749CB6923F070031A43EF
:10145000CA61236813F0100F0CD0A269214BDB691D
:1014600003F4E0639A4205D21E49CB6923F4E0639A
:101470001A43CA61236813F0200F0CD0E269194B9C
:101480001B6A03F070039A4205D216490B6A23F0D7
:1014900070031A430A62FFF7E9FD12498B69C3F32F
:1014A0000323114AD35C03F01F03D8408B6903F078
:1014B0000F03D35C03F01F0320FA03F30B4A1360FE
:1014C0000B4B18600B4B186801F044FA70BD0120FB
:1014D00070470120FAE70120F8E70120F6E700BF96
:1014E0000020005200440258385000080800002034
:1014F0000C0000200400002008B5FFF7B7FD0B4AE0
:101500009369C3F303230A49CB5C03F01F0320FA5A
:1015100003F3926902F00F02885C00F01F0023FAC7
:1015200000F0044A1060044A136008BD00440258E9
:1015300038500008080000200C00002008B5FFF714
:10154000DBFF054BDB69C3F30213044AD35C03F0F2
:101550001F03D84008BD00BF00440258385000089F
:1015600008B5FFF7C9FF054BDB69C3F30223044A43
:10157000D35C03F01F03D84008BD00BF00440258ED
:1015800038500008404B9B6A03F00303032B79D0CB
:1015900070B505460E463C4A136823F0806313601D
:1015A00001F03AFA0446384B1B6813F0006F06D07E
:1015B00001F032FA031B022BF5D9032070BD324B28
:1015C0009A6A22F47C32296842EA01329A626A6895
:1015D000013AC2F30802A9680139490289B20A43F3
:1015E000E9680139090401F4FE010A432969013956
:1015F000090601F0FE410A439A63DA6A22F0C0024A
:1016000069690A43DA62DA6A22F02002A9690A43A8
:10161000DA62DA6A22F01002DA62DA6B6FF3CF0272
:10162000E96942EAC102DA63DA6A42F01002DA6278
:10163000C6B91A46DB6A43F40023D362124A136820
:1016400043F08063136001F0E7F904460E4B1B681A
:1016500013F0006F14D101F0DFF9001B0228F5D957
:101660000320ABE7012E05D0074AD36A43F40013E9
:10167000D362E3E7044AD36A43F48013D362DDE71D
:1016800000209BE70120704700440258404B9B6AB2
:1016900003F00303032B79D070B505460E463C4A90
:1016A000136823F08053136001F0B6F90446384BF9
:1016B0001B6813F0005F06D001F0AEF9031B022B8C
:1016C000F5D9032070BD324B9A6A22F07C722968EA
:1016D00042EA01529A626A68013AC2F30802A968B2
:1016E0000139490289B20A43E9680139090401F460
:1016F000FE010A4329690139090601F0FE410A4346
:101700001A64DA6A22F4406269690A43DA62DA6AC0
:1017100022F40072A9690A43DA62DA6A22F480725A
:10172000DA625A6C6FF3CF02E96942EAC1025A6485
:10173000DA6A42F48072DA62C6B91A46DB6A43F4A6
:101740008003D362124A136843F08053136001F0A0
:1017500063F904460E4B1B6813F0005F14D101F0CF
:101760005BF9001B0228F5D90320ABE7012E05D059
:10177000074AD36A43F08073D362E3E7044AD36A2B
:1017800043F40003D362DDE700209BE701207047AC
:1017900000440258F8B50446036813F0006F30D0D7
:1017A000836EB3F5001F26D00ED8ABB1B3F5801F02
:1017B00007D102210830FFF7E5FE054695B12E4618
:1017C00021E0012635461EE0B3F5401F01D100257A
:1017D00008E00126354616E0984AD36A43F4003300
:1017E000D3620025954A136D23F44013A16E0B4379
:1017F0001365002607E002212830FFF747FF054662
:10180000DCE700263546236813F4807F14D0A36DEF
:10181000042B31D8DFE803F0032229080800874AA7
:10182000D36A43F40033D3624DBB844A136D23F073
:101830000703A16D0B431365236813F4007F38D0B1
:10184000E36D802B4AD01FD833B3402B19D1002130
:1018500004F10800FFF796FE054622E0002104F19E
:101860000800FFF78FFE0546DEE7002104F128009F
:10187000FFF70CFF0546D7E701263546DCE72E4685
:10188000DAE70126354614E0C02B0AD0B3F5807F95
:1018900007D0012635460CE0684AD36A43F400338A
:1018A000D36215BB654A136D23F4E073E16D0B43FE
:1018B0001365236813F4806F3CD0D4F8A830B3F5D7
:1018C000800F2FD016D8F3B1B3F5001F0FD1002130
:1018D00004F10800FFF756FE054619E0002104F167
:1018E0002800FFF7D3FE0546DBE72E46E1E7012699
:1018F00035461FE0B3F5C00F0AD0B3F5000F07D08F
:101900000126354616E04D4AD36A43F40033D362CC
:101910007DB94A4A936D23F46003D4F8A8100B43B1
:10192000936507E0002104F12800FFF7AFFE0546AC
:10193000EEE72E46236813F4006F2BD0D4F8AC30BA
:10194000B3F1007F53D00DD8ABB1B3F1807F06D196
:10195000002104F10800FFF715FE054610E00126FE
:10196000354617E0B3F1407F0AD0B3F1806F07D05E
:10197000012635460EE0314AD36A43F40033D36280
:10198000002D3BD12D4A936D23F0E063D4F8AC10C9
:101990000B439365236813F0007F13D0E36C202B77
:1019A00036D030D833B1102B2AD1244AD36A43F42D
:1019B0000033D3629DBB214AD36C23F03003E16C2A
:1019C0000B43D364236813F4805F47D0236EB3F5D1
:1019D000005F00F08D8027D893B3B3F5805F20D1EE
:1019E000002104F10800FFF7CDFD05462DE00021A0
:1019F00004F12800FFF74AFE0546C1E72E46C9E775
:101A000001263546DEE7302BD4D001263546D9E70E
:101A1000022104F10800FFF7B5FD0546CAE72E468E
:101A2000D0E70126354619E0B3F5405F0DD0B3F598
:101A3000804F0AD00126354610E000BF004402580E
:101A4000774AD36A43F40033D362002D57D1744AE6
:101A5000136D23F4E043216E0B431365236813F4E5
:101A6000005F17D0636EB3F5003F59D04CD843B137
:101A7000B3F5803F45D1012104F10800FFF782FD55
:101A80000546002D53D1664A136D23F4E023616EA1
:101A90000B431365236813F4804F19D0D4F8B0308A
:101AA000B3F1005F54D047D843B1B3F1805F40D168
:101AB000012104F10800FFF765FD0546002D4ED118
:101AC000574A936D23F0E043D4F8B0100B4393656D
:101AD000236813F4004F51D0236FB3F1805F40D0DF
:101AE000B3F1005F55D0002B40D00126354645E0CC
:101AF000002104F12800FFF7C9FD0546A5E72E46A1
:101B0000ACE701263546C5E7B3F5802FB9D0B3F56C
:101B1000A02FB6D0B3F5403FB3D001263546B9E784
:101B2000012104F12800FFF7B1FD0546A9E72E4683
:101B3000B0E701263546CBE7B3F1804FBED0B3F115
:101B4000A04FBBD0B3F1405FB8D001263546BFE708
:101B5000012104F12800FFF799FD0546AEE72E4666
:101B6000B6E72F4AD36A43F40033D362C5B92C4A8F
:101B7000136D23F04053216F0B431365236813F05B
:101B8000807F1CD0A36C032B44D8DFE803F0100B3C
:101B90003C10012104F10800FFF7F4FC0546E5E7DD
:101BA0002E46EBE71E4AD36A43F40033D362A5BB4B
:101BB0001B4AD36C23F00303A16C0B43D36423684B
:101BC00013F4800F2ED1236813F0010F00F0A680CC
:101BD000E36F282B00F2A080DFE803F08E9E9E9E2C
:101BE0009E9E9E9E889E9E9E9E9E9E9E979E9E9E32
:101BF0009E9E9E9E8E9E9E9E9E9E9E9E8E9E9E9E25
:101C00009E9E9E9E8E00022104F10800FFF7BAFC02
:101C10000546CCE701263546D1E72E46CFE700BF83
:101C200000440258584A136843F48073136000F06C
:101C3000F3FE0746544B1B6813F4807F05D100F078
:101C4000EBFEC01B6428F5D90325002D4AD14F4B6C
:101C50001B6FD4F8B420534013F4407F0CD04B4B8F
:101C60001A6F22F44072196F41F480311967196FAD
:101C700021F4803119671A67D4F8B430B3F5807F46
:101C800015D08DBBD4F8B43003F44072B2F5407F68
:101C90001ED03E4A136923F47C5313613B490B6FFA
:101CA000D4F8B420C2F30B0213430B678BE700F0A8
:101CB000B3FE0746354B1B6F13F0020FE1D100F066
:101CC000ABFEC01B41F288339842F3D90325D8E715
:101CD0002E48026922F47C522D4901EA1313134362
:101CE0000361DBE72E466EE72E466CE7012104F127
:101CF0000800FFF747FC0546E5B9244A536D23F079
:101D00003803E16F0B43536508E0012104F128001B
:101D1000FFF7BCFC0546EFE701263546236813F0C4
:101D2000020F17D0A36F052B29D8DFE803F00B05AE
:101D3000210B0B0B2E46F1E7012104F10800FFF700
:101D400021FC0546F5B9114A536D23F00703A16F35
:101D50000B435365236813F0040F2CD0D4F8943050
:101D6000052B00F2DC80DFE803F01B15D31B1B1BE7
:101D7000012104F12800FFF789FC0546E2E701266E
:101D80003546E7E72E46E5E700480258004402588A
:101D9000CFFFFF00012104F10800FFF7F3FB054628
:101DA000002D40F0BF80B34A936D23F00703D4F8B1
:101DB00094100B439365236813F0200F1DD0D4F8C3
:101DC0009030B3F1005F00F0C18000F2B0804BB101
:101DD000B3F1805F40F0A880002104F10800FFF714
:101DE000D1FB0546002D40F0B880A24A536D23F088
:101DF000E043D4F890100B435365236813F0400F71
:101E00001DD0D4F89C30B3F5006F00F0BA8000F21A
:101E1000A9804BB1B3F5806F40F0A180002104F19F
:101E20000800FFF7AFFB0546002D40F0B180914A56
:101E3000936D23F4E053D4F89C100B43936523680F
:101E400013F0800F1DD0D4F8A030B3F5804F00F010
:101E5000B38000F2A2804BB1B3F5005F40F09A80EE
:101E6000002104F10800FFF78DFB0546002D40F02E
:101E7000AA80804A936D23F46043D4F8A0100B43EA
:101E80009365236813F0080F0DD0D4F88430B3F5B0
:101E9000805F00F09A80774A536D23F44053D4F862
:101EA00084100B435365236813F0100F0DD0D4F842
:101EB0009830B3F5807F00F092806E4A936D23F4E2
:101EC0004073D4F898100B439365236813F4002FE4
:101ED00000F09A80D4F8A430B3F5803F00F08980F8
:101EE000B3F5003F08D0002B40F08A80002104F1B8
:101EF0000800FFF747FB0546002D40F084805D4A4F
:101F0000936D23F44033D4F8A4100B4393657BE026
:101F1000012104F12800FFF7B9FB054640E701263F
:101F2000354648E72E4646E70126354665E7B3F1D4
:101F3000804F3FF457AFB3F1A04F3FF453AFB3F12D
:101F4000405F3FF44FAF0126354656E7022104F1CA
:101F50002800FFF79BFB054644E72E464DE7012688
:101F600035466CE7B3F5805F3FF45EAFB3F5A05F35
:101F70003FF45AAFB3F5406F3FF456AF01263546F4
:101F80005DE7022104F12800FFF780FB05464BE7DF
:101F90002E4654E70126354673E7B3F5004F3FF46C
:101FA00065AFB3F5204F3FF461AFB3F5C04F3FF4D9
:101FB0005DAF0126354664E7022104F12800FFF7F2
:101FC00065FB054652E72E465BE7022104F1280037
:101FD000FFF75CFB00283FF45EAF01265BE70221C0
:101FE00004F12800FFF752FB00283FF466AF0126FA
:101FF00063E7022104F12800FFF748FB05467BE771
:102000000126354600E02E46236813F4802F18D0B1
:10201000D4F88830B3F5001F1FD0B3F5401F07D0A8
:10202000B3F5801F20D1134AD36A43F40033D3623F
:10203000EDB9104A536D23F44013D4F888100B43C4
:102040005365236813F4803F2CD0236DA3B1B3F5FF
:10205000803F1FD00126354624E0012104F12800ED
:10206000FFF714FB0546E3E701263546E9E72E4670
:10207000E7E700BF00440258704AD36A43F40033D4
:10208000D36275B96D4AD36C23F48033216D0B4351
:10209000D36407E0022104F10800FFF773FA054654
:1020A000EFE72E46236813F0005F11D1236813F485
:1020B000003F28D0D4F88030B3F5807F14D010D9F9
:1020C000B3F5007F15D0B3F5407F12D001261AE09A
:1020D000022104F12800FFF7D9FA0028E6D00126F2
:1020E000E4E733B101260EE0544AD36A43F40033E7
:1020F000D362002D69D1514A536D23F44073D4F853
:1021000080100B435365236813F4801F06D04B4A9D
:10211000136D23F00043616F0B431365236813F0C5
:10212000805F07D0454A136923F48043D4F8B81080
:102130000B431361236813F4001F06D03F4A136D4D
:1021400023F08073E16E0B431365236813F0804F17
:1021500009D03A4B1A6922F400421A611A69D4F87C
:10216000BC100A431A612368002B06DA334AD36C89
:1021700023F04053616D0B43D364236813F4000FC5
:1021800007D02E4A536D23F44003D4F88C100B4330
:102190005365636813F0010F19D1636813F0020FE0
:1021A0001ED1636813F0040F23D1636813F0080F86
:1021B00028D1636813F0100F2DD1636813F0200F3E
:1021C00032D106B101263046F8BD2E469BE70021EC
:1021D00004F10800FFF7D6F90028DED00646DCE758
:1021E000012104F10800FFF7CDF90028D9D00646F7
:1021F000D7E7022104F10800FFF7C4F90028D4D082
:102200000646D2E7002104F12800FFF73FFA002834
:10221000CFD00646CDE7012104F12800FFF736FABA
:102220000028CAD00646C8E7022104F12800FFF7BB
:102230002DFA0028C5D00126C5E700BF004402588A
:1022400008B5FFF759F9054B1B6AC3F30213044A9B
:10225000D35C03F01F03D84008BD00BF0044025800
:102260003850000810B4794B9A6A9C6AC4F3053C54
:10227000D96AC1F30011DB6BC3F3CC0301FB03F399
:1022800014F47C3F00F0DD8002F0030207EE903A88
:10229000F8EE677A012A4BD0022A00F09880002AD3
:1022A00040F0B280694B1B6813F0200F23D06749C0
:1022B0000A68C2F3C102664BD34007EE103AF8EE4B
:1022C000476A07EE10CAB8EE476A86EE867A8B6BCD
:1022D000C3F3080306EE903AF8EE666A9FED5D6A76
:1022E00067EE867A76EEA77AF7EE006A77EEA67A40
:1022F00027EE277A38E007EE10CAF8EE476A9FED1E
:10230000566A86EE267A514B9B6BC3F3080306EEA2
:10231000903AF8EE666A9FED4F6A67EE867A76EE3F
:10232000A77AF7EE006A77EEA67A27EE277A1BE007
:1023300007EE10CAF8EE476A9FED486A86EE267AE5
:10234000424B9B6BC3F3080306EE903AF8EE666AC5
:102350009FED406A67EE867A76EEA77AF7EE006A1E
:1023600077EEA67A27EE277A384A936BC3F3462393
:1023700007EE903AF8EE677AF7EE006A77EEA67A03
:1023800087EE276ABCEEC66A80ED006A936BC3F3E2
:10239000064307EE903AF8EE677A77EEA67A87EE74
:1023A000276ABCEEC66A80ED016A936BC3F30663CD
:1023B00007EE903AF8EE677A77EEA67AC7EE276ACC
:1023C000FCEEE66AC0ED026A5DF8044B704707EE6A
:1023D00010CAF8EE476A9FED226A86EE267A1B4BFA
:1023E0009B6BC3F3080306EE903AF8EE666A9FED26
:1023F000196A67EE867A76EEA77AF7EE006A77EECC
:10240000A67A27EE277AAFE707EE10CAF8EE476AFA
:102410009FED126A86EE267A0C4B9B6BC3F3080382
:1024200006EE903AF8EE666A9FED0A6A67EE867AE3
:1024300076EEA77AF7EE006A77EEA67A27EE277A8D
:1024400092E70023036043608360BDE700440258C5
:102450000090D003000000390024744C0024744A1A
:1024600020BCBE4B10B4794B9A6A9C6AC4F3055CDD
:10247000D96AC1F300215B6CC3F3CC0301FB03F306
:1024800014F07C7F00F0DD8002F0030207EE903A4A
:10249000F8EE677A012A4BD0022A00F09880002AD1
:1024A00040F0B280694B1B6813F0200F23D06749BE
:1024B0000A68C2F3C102664BD34007EE103AF8EE49
:1024C000476A07EE10CAB8EE476A86EE867A0B6C4A
:1024D000C3F3080306EE903AF8EE666A9FED5D6A74
:1024E00067EE867A76EEA77AF7EE006A77EEA67A3E
:1024F00027EE277A38E007EE10CAF8EE476A9FED1C
:10250000566A86EE267A514B1B6CC3F3080306EE1F
:10251000903AF8EE666A9FED4F6A67EE867A76EE3D
:10252000A77AF7EE006A77EEA67A27EE277A1BE005
:1025300007EE10CAF8EE476A9FED486A86EE267AE3
:10254000424B1B6CC3F3080306EE903AF8EE666A42
:102550009FED406A67EE867A76EEA77AF7EE006A1C
:1025600077EEA67A27EE277A384A136CC3F3462310
:1025700007EE903AF8EE677AF7EE006A77EEA67A01
:1025800087EE276ABCEEC66A80ED006A136CC3F35F
:10259000064307EE903AF8EE677A77EEA67A87EE72
:1025A000276ABCEEC66A80ED016A136CC3F306634A
:1025B00007EE903AF8EE677A77EEA67AC7EE276ACA
:1025C000FCEEE66AC0ED026A5DF8044B704707EE68
:1025D00010CAF8EE476A9FED226A86EE267A1B4BF8
:1025E0001B6CC3F3080306EE903AF8EE666A9FEDA3
:1025F000196A67EE867A76EEA77AF7EE006A77EECA
:10260000A67A27EE277AAFE707EE10CAF8EE476AF8
:102610009FED126A86EE267A0C4B1B6CC3F30803FF
:1026200006EE903AF8EE666A9FED0A6A67EE867AE1
:1026300076EEA77AF7EE006A77EEA67A27EE277A8B
:1026400092E70023036043608360BDE700440258C3
:102650000090D003000000390024744C0024744A18
:1026600020BCBE4BF0B583B000236BE085685E00F4
:102670000324B44025EA0405CC68B4402C438460AC
:10268000456825EA0C054C68C4F300149C402C43B3
:10269000446069E0DD08083550F8254003F0070C78
:1026A0004FEA8C0C4FF00F0E0EFA0CFE24EA0E0EC1
:1026B0000C6904FA0CF444EA0E0440F825406BE07F
:1026C000092400E0002404FA0EF42C430CF1020C5F
:1026D000694D45F82C404FF0B0442568D44325EAB5
:1026E00002064F6817F4801F01D042EA05064FF03A
:1026F000B0452E606D6804EA05064F6817F4001FA8
:1027000001D042EA05064FF0B0456E60D5F884501E
:1027100004EA05064F6817F4003F01D042EA0506B7
:102720004FF0B045C5F88460D5F880502C404E6815
:1027300016F4803F01D042EA05044FF0B042C2F8DF
:10274000804001330A6832FA03F400F092804FF0BF
:10275000010C0CFA03FC1CEA0202F2D04C6804F0F3
:102760000304013C012C81D94C6804F00304032CC0
:102770000CD0C4685D004FF0030C0CFA05FC24EA91
:102780000C0C8C68AC4044EA0C04C4604C6804F047
:102790000304022C3FF47EAF04684FEA430E4FF06F
:1027A000030C0CFA0EFC24EA0C0C4C6804F0030435
:1027B00004FA0EF444EA0C0404604C6814F4403F3C
:1027C000BFD02E4CD4F8F45045F00205C4F8F450B4
:1027D000D4F8F44004F002040194019C4FEA930CF5
:1027E0000CF10205244C54F8255003F0030E4FEA77
:1027F0008E0E0F2404FA0EF425EA0405204CA042A4
:102800003FF460AF04F58064A04222D004F58064F8
:10281000A04220D004F58064A0421ED004F580645C
:10282000A0421CD004F58064A0421AD004F5806454
:10283000A04218D004F58064A04216D004F580644C
:10284000A04214D004F58064A0423FF439AF0A24BA
:1028500039E7012437E7022435E7032433E704246A
:1028600031E705242FE706242DE707242BE708246A
:1028700029E703B0F0BD00BF00040058004402582F
:10288000000002580AB181617047090481617047F4
:102890002030054B53F82020044B9A4201D00120F0
:1028A00070470020704700BF00640258000300809A
:1028B00041F44071014B43F8201070470064025806
:1028C00038B50446224BDB6803F00703062B07D01C
:1028D0001F4BDB6803F03F03834236D0012038BD35
:1028E0001B4AD36823F03F030343D36000F094F8FE
:1028F0000546174B5B6813F4005F07D100F08CF8B6
:10290000431BB3F57A7FF4D90120E8E72E2C18BFDA
:102910001E2C08D02D2C14BF002301231D2C02D007
:102920000BB90020DBE700F077F80446084BDB68C2
:1029300013F4803F07D100F06FF8001BB0F57A7FE9
:10294000F4D90120CBE70020C9E70020C7E700BF8A
:1029500000480258104B1B780BB90120704710B586
:1029600004464FF47A70B0FBF3F30C4A1068B0FBE6
:10297000F3F0FEF70FF868B90F2C01D901200AE037
:10298000002221464FF0FF30FDF7F4FF044B1C609E
:10299000002000E0012010BD000000200C000020FD
:1029A0000400002010B50320FDF7D2FFFEF75EFB08
:1029B0000F498B69C3F303230E4AD35C03F01F0353
:1029C000D8408B6903F00F03D35C03F01F0320FA98
:1029D00003F3094A1360094B18600F20FFF7BAFF91
:1029E00010B10124204610BD0446FDF7BBFEF9E7F7
:1029F0000044025838500008080000200C00002055
:102A0000034B1B78034A11680B441360704700BFE7
:102A100000000020A4010020014B1868704700BF8F
:102A2000A401002038B50446FFF7F6FF0546B4F1CF
:102A3000FF3F02D0044B1B781C44FFF7EDFF401B07
:102A4000A042FAD338BD00BF00000020014B186837
:102A5000000C70470010005C2D4BD3F8882042F426
:102A60007002C3F888201A6942F010021A61294BDB
:102A70001B6803F00F03062B06D8264A136823F0C1
:102A80000F0343F007031360234B1A6842F001025F
:102A90001A6000221A611968204A0A401A601D4B08
:102AA0001B6813F0080F06D01A4A136823F00F03AF
:102AB00043F007031360184B00229A61DA611A622F
:102AC000174999621749D962174919635A6399637B
:102AD000DA6319645A64196821F4802119601A664E
:102AE0004FF0B042D2F8E43043F48043C2F8E4300F
:102AF0000E4B1B686FF30F03B3F1005F03D20C4B57
:102B00000122C3F808210B4B43F2D2021A6070472E
:102B100000ED00E000200052004402587FEDF6EA8C
:102B2000000202020000FF01800201010010005CAF
:102B3000008000510040005210B40268536991694E
:102B400041F00801916101688A6942F010028A61CE
:102B500001680A6822F001020A6001680C69294ACA
:102B600022400A6101688A6822F440428A6090F833
:102B70008120D2B2042A0DD013F0200F0AD0D0F851
:102B8000842042F08002C0F8842001688A6942F003
:102B900020028A6190F88120D2B2032A0DD013F06E
:102BA000400F0AD0D0F8842042F00402C0F88420FC
:102BB00001688A6942F040028A6113F4007F0AD0FA
:102BC000D0F8842042F00102C0F8842001688A69AC
:102BD00042F400728A6113F4807F0AD0D0F8843006
:102BE00043F00803C0F884300268936943F48073AB
:102BF00093610023A0F86230A0F86A305DF8044BBE
:102C0000704700BF90FCFFFFC36B5B09C0680830D2
:102C1000C00803FB000070472DE9F84380460F46CB
:102C200016461D46DDF8209000E0BDB1D8F8003012
:102C30005C6937EA04040CBF01230023B3420AD1C4
:102C4000FFF7EAFEA0EB0900A842EED3B5F1FF3F83
:102C5000EBD0032000E00020BDE8F8830320FBE771
:102C6000002800F0B78070B5044600238362056831
:102C70005C4B5D4E9D4218BFB54214BF0126002635
:102C800007D0A3F574439D4203D0C3680F2B00F215
:102C9000A3802046FFF7B8FF2EB1544B9D4202D0CF
:102CA000082800F29B804F4A4F4B9D4218BF954227
:102CB00003D003F580639D4202D1102800F290807A
:102CC00094F88130F3B1022384F8813022681368CC
:102CD00023F00103136023689A6802F4F812A169D3
:102CE000B1F1806F14D0636813F4800F23D0E368D0
:102CF000062B20D921680B6823F48073206D0343D1
:102D00000B601DE084F880302046FDF73DFDDAE7DA
:102D10006168B1F5800F06D00029E4D1A16BB1F153
:102D2000805FE0D102E0A06B0028F5D1196841F482
:102D300080511960D7E721680B6823F480730B601A
:102D4000E369A16A0B431343E26B1343E168226812
:102D50000B439360636B626A1343A26B1343A269D4
:102D600013432269134362691343226A134362685F
:102D70001343E26C1343A2681343A26C1343A16D87
:102D800022680B43D36063686BB92268936823F4AD
:102D9000C05343F4006393602268936823F4C063D4
:102DA00043F4806393602268136D23F0010313657D
:102DB000636813F4800F06D02268D36823F00043C1
:102DC000616D0B43D3600020C4F88400012384F8B4
:102DD000813070BD012070470120FAE70120F8E73B
:102DE0000120F6E70030014000380040003C004080
:102DF0002DE9F04F83B004468A4691461D46D0F82F
:102E000000B0C66BC6F34F16FFF706FE94F881704C
:102E1000FFB2012F40F02D820136B6B28046B9F1E3
:102E2000000F18BFBAF1000F00F02482002D00F04F
:102E3000218294F88030012B00F02082012384F855
:102E40008030052384F881300023C4F88430C4F82E
:102E50006490A4F86A50A4F86850C4F85CA0A4F880
:102E60006250A4F86050236763672268D36823F434
:102E7000C023D36022689C499C4B9A4218BF8A4267
:102E800009D003F580639A4202D04FF0080904E0AC
:102E90004FF0100901E04FF0100953686FF30F0372
:102EA0002B4353602268136843F001031360636887
:102EB000B3F5800F06D0E3680F2B7AD94FEA990B50
:102EC000A9461FE02268136843F400731360F2E719
:102ED00023685A69B9F1000F14D0596911F0010F34
:102EE00032D0626E1B6B1360636E04336366B4F89A
:102EF0006A309BB2013B9BB2A4F86A30B4F86A9086
:102F00001FFA89F945EA09039BB2002B00F094816E
:102F100023685A6912F0020FDAD0002DD8D005EBE1
:102F20000B029145D4D2E26D12681A62E36D04334C
:102F3000E365B4F862309BB2013B9BB2A4F8623007
:102F4000B4F86250ADB2C3E7B14514D212F4004FE9
:102F500011D0626E1B6B1360636E04336366B4F84A
:102F60006A309BB2013B9BB2A4F86A30B4F86A9015
:102F70001FFA89F9C6E7FFF74FFDA0EB08000C9B8D
:102F8000984202D3B3F1FF3F02D10C9B002BB9D181
:102F90002046FFF7D1FDD4F8843043F48073C4F8A1
:102FA0008430012384F88130002384F880300327A3
:102FB00060E1072B40F23E814FEA59039A46A94649
:102FC0001AE023685A69B9F1000F15D05B6913F054
:102FD000010F34D0636EBBF830201A80636E023369
:102FE0006366B4F86A309BB2013B9BB2A4F86A30C6
:102FF000B4F86A901FFA89F945EA09039BB2002BDD
:1030000000F01A8123685B6913F0020FD9D0002DFC
:10301000D7D05346EB189945D3D2E36D1B88ABF854
:103020002030E36D0233E365B4F862309BB2013BBC
:103030009BB2A4F86230B4F86250ADB2C1E7B145BA
:103040001BD212F4004F18D0636EBBF830201A80E8
:10305000636E9A1C6266BBF830205A80636E02333E
:103060006366B4F86A309BB2023B9BB2A4F86A3044
:10307000B4F86A901FFA89F9BEE7B9F1010F15D1CA
:1030800012F4005F12D0636EBBF830201A80636EBA
:1030900002336366B4F86A309BB2013B9BB2A4F87A
:1030A0006A30B4F86A901FFA89F9A5E7FFF7B4FC13
:1030B000A0EB08000C9B984202D3B3F1FF3F02D172
:1030C0000C9B002B98D12046FFF736FDD4F88430B6
:1030D00043F48073C4F88430012384F881300023E2
:1030E00084F880300327C5E00030014000380040FC
:1030F00023685A69BBF1000F15D0596911F0010F0F
:1031000034D0626E93F830301370636E01336366AF
:10311000B4F86A309BB2013B9BB2A4F86A30B4F8B1
:103120006AB01FFA8BFB45EA0B039BB2002B00F041
:10313000838023685A6912F0020FD9D0002DD7D0AE
:1031400005EB09029345D3D2E26D127883F8202073
:10315000E36D0133E365B4F862309BB2013B9BB28F
:10316000A4F86230B4F86250ADB2C1E7B3452AD2D8
:1031700012F4004F27D0626E93F830301370636EF4
:103180005A1C6266226892F830205A70636E5A1C8C
:103190006266226892F830205A70636E5A1C62662A
:1031A000226892F830205A70636E01336366B4F877
:1031B0006A309BB2043B9BB2A4F86A30B4F86AB0A0
:1031C0001FFA8BFBAFE7BBF1030F15D812F4C04F0A
:1031D00012D0626E93F830301370636E0133636601
:1031E000B4F86A309BB2013B9BB2A4F86A30B4F8E1
:1031F0006AB01FFA8BFB96E7FFF70EFCA0EB080006
:103200000C9B984202D3B3F1FF3F02D10C9B002BE1
:1032100089D12046FFF790FCD4F8843043F48073C2
:10322000C4F88430012384F88130002384F880308E
:1032300003271FE0AB4676E7CDF800800C9B002209
:1032400008212046FFF7E8FC28B1D4F8843043F089
:103250002003C4F884302046FFF76EFC012384F875
:103260008130002384F88030D4F8843013B90027EB
:1032700000E00227384603B0BDE8F08F0227F9E7E7
:10328000026852E8003F23F4907342E800310029BD
:10329000F6D1026802F1080353E8001F0D4B0B4002
:1032A000083242E800310029F3D1C36E012B06D069
:1032B0002023C0F88C300023C36643677047026840
:1032C00052E8003F23F0100342E800310029F6D114
:1032D000EEE700BFFEFFFFEF70B586B004468368DF
:1032E0000269134342691343C269134301680868C2
:1032F000884A02401A430A602268536823F4405304
:10330000E1680B435360A1692268834B9A4201D064
:10331000236A19439068814B03400B4393602268F2
:10332000D36A23F00F03616A0B43D36223687C4A9C
:10333000934221D07B4A934200F08C807A4A934298
:1033400000F0A280794A934200F0B580784A934217
:1033500000F0C880774A934200F0F480764A9342A6
:1033600000F01981754A934200F02C816A4A934219
:1033700000F03F81802233E0714A526D02F0380242
:10338000282A65D8DFE812F0290064006400640090
:1033900064006400640064004D0164006400640023
:1033A00064006400640064002B0064006400640036
:1033B00064006400640064005E00640064006400F3
:1033C00064006400640064006000640064006400E1
:1033D00064006400640064006200012200E00822CE
:1033E0004D498B4200F02F81E069B0F5004F00F0AD
:1033F000AF81202A00F20682202A00F25382DFE801
:1034000012F0080222025102510225025102510219
:1034100051022A025102510251025102510251023B
:1034200051022F0251025102510251025102510226
:1034300051025102510251025102510251025102F4
:1034400051023B021022CBE72022C9E74022C7E706
:103450008022C5E73A4A526D02F00702052A11D8C8
:10346000DFE812F00600E10008000A000C000E0080
:103470000022B5E70822B3E71022B1E72022AFE728
:103480004022ADE78022ABE72D4A526D02F00702E1
:10349000052A0ED8DFE802F003C90507090B002250
:1034A0009EE708229CE710229AE7202298E7402214
:1034B00096E7802294E7224A526D02F00702052A1D
:1034C0000ED8DFE802F003B40507090B002287E7F6
:1034D000082285E7102283E7202281E740227FE748
:1034E00080227DE7164A526D02F00702052A0ED8A7
:1034F000DFE802F0039F0507090B002270E70822AE
:103500006EE710226CE720226AE7402268E78022FB
:1035100066E700BFF369FFCF000C0058FFF4FF110E
:10352000001001400044004000480040004C0040B2
:10353000005000400014014000780040007C004032
:10354000004402587D4A526D02F03802282A20D8E1
:10355000DFE802F0151F1F1F1F1F1F1F711F1F1FF6
:103560001F1F1F1F171F1F1F1F1F1F1F191F1F1F79
:103570001F1F1F1F1B1F1F1F1F1F1F1F1D0001229B
:103580002EE708222CE710222AE7202228E74022F3
:1035900026E7802224E7694A526D02F00702052AD5
:1035A0000ED8DFE802F0034A0507090B002217E7EF
:1035B000082215E7102213E7202211E740220FE727
:1035C00080220DE75D4A526D02F00702052A0ED8EF
:1035D000DFE802F003350507090B002200E70822A7
:1035E000FEE61022FCE62022FAE64022F8E68022DF
:1035F000F6E602F50E32926D02F00702052A0ED8A9
:10360000DFE802F0031F0507090B0222E8E60822A3
:10361000E6E61022E4E62022E2E64022E0E680220E
:10362000DEE60422DCE60422DAE60422D8E60422FE
:10363000D6E60422D4E60422D2E60422D0E604220E
:10364000CEE60422CCE6202A27D8022AC0F0188130
:10365000023A1E2A00F21681DFE812F02600140159
:1036600056001401140114015B001401140114012B
:103670001401140114011401600014011401140157
:103680001401140114011401140114011401140192
:1036900014011401140114016C00402A02D14FF4EA
:1036A000004006E00120FEE0FEF7CAFD002800F021
:1036B000EB80626A224B33F81220B0FBF2F36568AC
:1036C00005EB4501994200F2E180B3EB053F00F2C2
:1036D000DF80002633463146FCF732FE090241EA1C
:1036E000106100026B08C0182A46334641F1000100
:1036F000FCF726FEA0F54072124B9A4200F2CA80F7
:103700002368D8603046CEE003A8FEF7ABFD0498EE
:10371000CCE76846FEF7A6FE0198C7E7074B1B6893
:1037200013F0200F08D0054B1B68C3F3C1030648F4
:10373000D840BEE70548BCE70348BAE70044025852
:1037400048500008FFFC0F000090D00300093D0026
:10375000202A15D8202A00F29F80DFE802F01536D3
:103760009D9D399D9D9D3E9D9D9D9D9D9D9D439DA6
:103770009D9D9D9D9D9D9D9D9D9D9D9D9D9D4F0064
:10378000402A06D001208EE0FDF7D8FE002800F088
:103790008580626A4B4B33F81230B0FBF3F06268FD
:1037A000530803EB4003B3FBF2F3A3F110014FF610
:1037B000EF72914274D89AB222F00F02C3F342031F
:1037C00013432268D36000206DE0FDF7C9FEDDE7FA
:1037D00003A8FEF747FD0498D8E76846FEF742FEC7
:1037E0000198D3E7384B1B6813F0200F08D0364BF5
:1037F0001B68C3F3C1033548D840CAE73448C8E75B
:103800003248C6E7402A02D14FF4004005E00120CB
:1038100049E0FDF793FE00284FD0626A294B33F848
:103820001230B0FBF3F0636800EB5300B0FBF3F031
:10383000A0F110024FF6EF739A4240D8236880B28D
:10384000D86000202FE0FDF78BFEE4E703A8FEF729
:1038500009FD0498DFE76846FEF704FE0198DAE701
:10386000194B1B6813F0200F08D0174B1B68C3F3CC
:10387000C1031648D840D0E71548CEE71348CCE737
:10388000012010E001200EE000200CE001200AE001
:10389000012008E0012006E0012004E0002002E011
:1038A000012000E001200123A4F86A30A4F8683068
:1038B00000236367A36706B070BD0020F3E7012013
:1038C000F1E700BF48500008004402580090D003C0
:1038D00000093D00836A13F0080F06D002685368A0
:1038E00023F40043816B0B435360836A13F0010F91
:1038F00006D00268536823F40033C16A0B43536057
:10390000836A13F0020F06D00268536823F48033F1
:10391000016B0B435360836A13F0040F06D00268F7
:10392000536823F48023416B0B435360836A13F085
:10393000100F06D00268936823F48053C16B0B43C9
:103940009360836A13F0200F06D00268936823F413
:103950000053016C0B439360836A13F0400F0AD04D
:103960000268536823F48013416C0B435360436C2B
:10397000B3F5801F0BD0836A13F0800F06D0026866
:10398000536823F40023C16C0B43536070470268F3
:10399000536823F4C003816C0B435360EBE72DE9BC
:1039A000F84305460E4617469946DDF820802B68F9
:1039B000DC6936EA04040CBF01240024BC423AD17D
:1039C000B8F1FF3FF3D0FFF727F8A0EB090040451F
:1039D00034D8B8F1000F33D02B681A6812F0040FF6
:1039E000E5D0B6F1400218BF0122802EDFD0002AB8
:1039F000DDD0DA6912F0080F11D1DA6912F4006F24
:103A0000D5D04FF400621A622846FFF739FC202314
:103A1000C5F89030002385F8843003200CE008249A
:103A20001C622846FFF72CFCC5F89040002385F85F
:103A30008430012000E00020BDE8F8830320FBE78C
:103A40000320F9E72DE9F04182B01E46D0F8883016
:103A5000202B5BD104460D469046002A18BF002952
:103A600001D1012053E00023C0F890302123C0F899
:103A70008830FEF7D1FF0746A4F85480A4F856809A
:103A8000A368B3F5805F02D04FF0000816E0236909
:103A900043B34FF0000811E02023C4F8883003201E
:103AA00035E038F8023B2268C3F308039362B4F8A8
:103AB000562092B2013A92B2A4F85620B4F8563089
:103AC0009BB293B100963B46002280212046FFF72F
:103AD00066FF0028E0D1002DE3D015F8012B236804
:103AE0009A62E4E7A8460025E8E700963B460022F4
:103AF00040212046FFF753FF18B92023C4F888302F
:103B000005E02023C4F88830032000E0022002B042
:103B1000BDE8F08130B583B004460023C0F8903092
:103B2000FEF77AFF05462268126812F0080F10D1DE
:103B300023681B6813F0040F28D12023C4F88830B1
:103B4000C4F88C300020E066206784F8840003B05D
:103B500030BD6FF07E430093034600224FF4001106
:103B60002046FFF71CFF0028E2D0226852E8003F01
:103B700023F0800342E800310029F6D12023C4F865
:103B80008830002384F884300320E0E76FF07E4320
:103B900000932B4600224FF480012046FFF7FFFEE2
:103BA0000028CAD0226852E8003F23F4907342E80C
:103BB00000310029F6D1226802F1080353E8003FE2
:103BC00023F00103083242E800310029F3D1202319
:103BD000C4F88C30002384F884300320B7E778B32E
:103BE00010B50446D0F888300BB32423C4F88830CD
:103BF0002268136823F001031360A36AE3B9204627
:103C0000FFF76AFB012811D02268536823F4904320
:103C100053602268936823F02A0393602268136834
:103C200043F0010313602046FFF774FF10BD80F8D6
:103C30008430FCF70FFED8E72046FFF74BFEDEE7A7
:103C400001207047436E2BB90123A0F86A30A0F819
:103C50006830704730B403689A68C2F3426299686A
:103C6000490F094D6B5C1B01084C615C93FBF1F340
:103C7000A0F86A30AB5C1B01A25C93FBF2F3A0F8E6
:103C8000683030BC704700BF6850000860500008C2
:103C900090F88430012B18D0012380F8843024233D
:103CA000C0F8883003681A68196821F001011960AA
:103CB00022F000520023436601680A602022C0F807
:103CC000882080F88430184670470220704738B545
:103CD00090F88430012B1DD00446012380F88430F5
:103CE0002423C0F8883003681D681A6822F0010296
:103CF0001A600268936823F0604319439160FFF7EC
:103D0000A1FF23681D602023C4F88830002084F8B8
:103D1000840038BD0220FCE738B590F88430012BD0
:103D20001DD00446012380F884302423C0F8883055
:103D300003681D681A6822F001021A60026893681D
:103D400023F0606319439160FFF77CFF23681D60D7
:103D50002023C4F88830002084F8840038BD022075
:103D6000FCE70000DFF834D0FEF776FE0C480D4982
:103D70000D4A002302E0D458C4500433C4188C42C6
:103D8000F9D30A4A0A4C002301E013600432A2422C
:103D9000FBD300F069FAFCF75FFC704700000220DB
:103DA000000000206C000020B45000086C000020CF
:103DB000F8020020FEE70000002310B50446C0E929
:103DC0000033C0E90433836081814366C28183612B
:103DD000194608225C3000F0F9F90D4B63620D4B77
:103DE000A3620D4BE3620D4B23630D4B24629C4297
:103DF00006D003F16802944202D0D0339C4205D130
:103E000004F15800BDE8104000F052BA10BD00BFE8
:103E10001D4000083F400008774000089B40000814
:103E2000A8010020024A0349034800F069B800BF16
:103E3000100000205D4B00082000002041680C4B62
:103E4000994210B5044601D000F088FEA168094BE4
:103E5000994202D0204600F081FEE168064B99426B
:103E600004D02046BDE8104000F078BE10BD00BF71
:103E7000A8010020100200207802002010B50B4B92
:103E80000B4C0C4A1A60204600220421FFF794FFD5
:103E900004F1680001220921FFF78EFF04F1D00030
:103EA0000222BDE810401221FFF786BFE002002089
:103EB000A8010020253E0008014800F0FAB900BF23
:103EC000E9020020014800F0F5B900BFE902002036
:103ED00010B50446FFF7F0FF236A1BB1BDE81040A0
:103EE000FFF7F0BF044B2362044B1B68002BF5D196
:103EF000FFF7C4FFF2E700BF3D3E0008E0020020EC
:103F00002DE9F8430746884614460026D4E9019572
:103F1000B9F1010905D52468002CF7D13046BDE878
:103F2000F883AB89012B07D9B5F90E30013303D0E3
:103F300029463846C04706436835E9E70FB407B558
:103F4000064904AB086853F8042B8168019300F01C
:103F5000CDFA03B05DF804EB04B070471C000020FC
:103F6000036A70B5846805460E460BB9FFF7B0FFCB
:103F7000636EDB0705D4A389980502D4A06D00F019
:103F800098F9A389190702D52369002B35D1214659
:103F9000284600F0C5F880B34FF0FF35636EDA07AE
:103FA00005D4A3899B0502D4A06D00F083F92846AF
:103FB00070BD002B15DB23685A1C22601970A368A2
:103FC00016F8011F013BA3600029F2D1002B16DA7D
:103FD00022460A21284600F064F80130DCD00A2588
:103FE000DCE7A2699A4201DC0A29E4D1224628468C
:103FF00000F057F80130E2D1CEE7013EDFE7236859
:104000005A1C22600A221A70E9E70000024B01469E
:104010001868FFF7A5BF00BF1C00002010B50C46B4
:10402000B1F90E1000F0FCF80028ABBF636DA38956
:104030001B1823F48053ACBF6365A38110BD2DE929
:10404000F0411F468B89DB0505460C46164605D513
:10405000B1F90E100223002200F0D0F8A389B4F9C0
:104060000E1023F48053A38132463B462846BDE818
:10407000F04100F0E7B810B50C46B1F90E1000F0B1
:10408000BDF8431CA38915BF606523F4805343F436
:104090008053A38118BFA38110BDB1F90E1000F0A9
:1040A0009DB8F8B50E461446054618B1036A0BB91B
:1040B000FFF70EFFA369A360A3891A0701D523693F
:1040C00043B92146284600F02BF818B14FF0FF37CE
:1040D0003846F8BD23682269981A6369F6B28342AC
:1040E000374605DC2146284600F038FD0028EDD192
:1040F000A368013BA36023685A1C22601E7062699A
:10410000431C9A4204D0A389DB07E1D50A2EDFD1F4
:104110002146284600F022FD0028D9D0D6E700002D
:1041200038B5294B054618680C4618B1036A0BB917
:10413000FFF7CEFEB4F90C30190722D4DA0607D403
:1041400009222A6043F04003A3814FF0FF3033E09F
:10415000580712D5616B41B104F14403994202D072
:10416000284600F0A9F800236363A38923F0240301
:10417000A3810023636023692360A38943F00803BC
:10418000A38123694BB9A38903F42073B3F5007F9E
:1041900003D02146284600F02FFDB4F90C3013F06F
:1041A00001020AD00022A26062695242A261226921
:1041B00042B913F08000C5D138BD990758BF626974
:1041C000A260F4E70020F7E71C0000200244034649
:1041D000934200D1704703F8011BF9E738B5064D4B
:1041E0000023044608462B6000F074FD431C02D1F6
:1041F0002B6803B1236038BDE402002038B5074DB9
:1042000004460846114600222A601A4600F07AFD4C
:10421000431C02D12B6803B1236038BDE4020020A7
:1042200038B5074D04460846114600222A601A4652
:1042300000F070FD431C02D12B6803B1236038BD30
:10424000E402002038B5074D044608461146002216
:104250002A601A46FCF72CF9431C02D12B6803B1E3
:10426000236038BDE402002070B50D4D0D4C641B79
:10427000A4100026A64209D10B4D0C4C00F0B0FE54
:10428000641BA4100026A64205D170BD55F8043B5E
:1042900098470136EEE755F8043B98470136F2E7B8
:1042A000AC500008AC500008AC500008B0500008FA
:1042B000704770477047000038B50546002941D067
:1042C00051F8043C0C1F002BB8BFE41800F0D8F8DC
:1042D0001D4A136833B9636014602846BDE838404E
:1042E00000F0D4B8A34208D9206821188B4201BF3E
:1042F00019685B6809182160EDE71A465B680BB125
:10430000A342FAD911685018A0420BD12068014489
:10431000501883421160E0D118685B68536008440C
:104320001060DAE702D90C232B60D6E72068211849
:104330008B4204BF19685B68636004BF0918216081
:104340005460CAE738BD00BFF002002070B50F4EC0
:104350000C463168054611B900F0ACFC30602146CE
:10436000284600F0A7FC431C03D14FF0FF34204641
:1043700070BDC41C24F00304A042F8D0211A2846C2
:1043800000F098FC0130F2D1EFE700BFEC02002012
:104390002DE9F041CD1C25F0030508350C2D38BF63
:1043A0000C25002D064601DBA94204D90C233360FD
:1043B0000020BDE8F081314F00F062F83B681C46F8
:1043C00044BB29463046FFF7C1FF431C044650D189
:1043D0003C682146002941D1002C44D02368304656
:1043E00004EB030800F066FC80453CD121686D1A9F
:1043F00029463046FFF7AAFF013034D023682B440A
:1044000023603B68002B36D05A68A24229D1002293
:104410005A600EE02268521B1DD40B2A16D961196E
:10442000A342256018BF5960636808BF39606251B4
:104430004B60304600F02AF804F10B00231D20F0F9
:104440000700C21AB5D01B1AA350B2E7A342626894
:10445000DED13A60EDE723466468B1E70C4649686F
:10446000B8E71346CEE70C233360304600F00EF871
:104470009EE70560DDE75B60FFDE00BFF002002025
:104480000148FFF716BF00BFE80200200148FFF710
:1044900011BF00BFE80200209368013B002B10B45D
:1044A000936008DA9469A34201DB0A2903D15DF81D
:1044B000044BFFF7F6BD1368581C106019700846CE
:1044C0005DF8044B7047F8B506460F461446D518FC
:1044D000AC4201D1002007E014F8011B3A463046F7
:1044E000FFF7DAFF431CF3D1F8BD00002DE9F04FD0
:1044F0000D469DB014469846064618B1036A0BB99E
:10450000FFF7E6FC6B6ED90705D4AB899A0502D498
:10451000A86DFFF7CEFEAB891B0701D52B699BB9B0
:1045200029463046FFF7FCFD70B16B6EDC0704D501
:104530004FF0FF301DB0BDE8F08FAB899805F7D480
:10454000A86DFFF7B7FEF3E70023099320238DF84A
:104550002930CDF80C803023DFF8AC818DF82A307B
:104560004FF0010923469A4613F8012B0AB1252A78
:10457000F9D1BAEB040B0BD05B46224629463046F4
:10458000FFF7A1FF013000F0A780099A5A44099271
:104590009AF80030002B00F09F8000234FF0FF328C
:1045A000CDE905230AF1010A049307938DF85330EE
:1045B0001A935446052214F8011B5348FBF770FE6A
:1045C000049AD8B9D10644BF20238DF8533013077D
:1045D00044BF2B238DF853309AF800302A2B15D086
:1045E000079A544600204FF00A0C214611F8013B6F
:1045F000303B092B4BD9B0B1079214E0A0EB080374
:1046000009FA03F313430493A246D2E7039B191D4F
:104610001B680391002BBBBF5B4242F00202079371
:104620000793B8BF049223782E2B0AD163782A2BE4
:1046300032D1039B1A1D1B68039243EAE3730234D1
:104640000593DFF8D4A0217803225046FBF728FE1B
:1046500038B1049BA0EB0A0040228240134301348E
:10466000049314F8011B29488DF828100622FBF743
:1046700017FE00283FD0264B1BBB039B073323F0BC
:10468000070308330393099B3B4409936AE70CFB38
:1046900002320C460120A8E7002301340593194695
:1046A0004FF00A0C204610F8012B303A092A03D9A2
:1046B000002BC6D00591C4E70CFB01210446012361
:1046C000F0E703AB00932A46124B04A93046AFF340
:1046D00000800746781CD6D16B6ED90705D4AB890C
:1046E0009A0502D4A86DFFF7E5FDAB895B063FF59F
:1046F0001FAF09981EE703AB00932A46054B04A998
:10470000304600F079F8E4E7705000087A5000086D
:1047100000000000C7440008765000082DE9F0476B
:10472000164698468A680B69DDF820909342B8BF18
:104730001346336091F8432007460C460AB1013313
:1047400033602368990642BF3368023333602568BB
:1047500015F0060506D104F1190AE36832689B1AC0
:10476000AB4226DC94F843302268003B18BF01239B
:1047700092062BD404F1430241463846C847013023
:104780001ED02368226903F00603042B02BFE568EC
:104790003368ED1AA3680CBF25EAE575002593423E
:1047A000C4BF9B1AED1800261A34B5421AD1002056
:1047B00008E00123524641463846C847013003D13C
:1047C0004FF0FF30BDE8F0870135C6E7E1185A1C0D
:1047D000302081F84300224494F8451082F84310B9
:1047E0000233C7E70123224641463846C847013015
:1047F000E6D00136D9E700002DE9FF470F7E0C9D7A
:10480000782F914680460C469A4601F1430207D81C
:10481000622F0AD8002F00F0E080582F00F0BB80F4
:1048200004F1420684F842703AE0A7F16303152BC5
:10483000F6D801A151F823F091480008A5480008D6
:1048400021480008214800082148000821480008A4
:10485000A548000821480008214800082148000810
:1048600021480008C1490008354900087749000877
:104870002148000821480008E349000821480008B1
:104880003549000821480008214800087F490008F0
:104890002B681A1D1B682A6004F1420684F8423016
:1048A0000123ABE0236829681F0601F1040028609A
:1048B00001D50D6803E05E06FBD5B1F900506168D3
:1048C000002D7ADA2D20002984F84300A1602DDA2A
:1048D0005E486D420A231646B5FBF3F103FB115700
:1048E000C75D06F8017D2F46BB420D46F4D9082B63
:1048F0000BD12368DF0708D5236961689942DEBFC1
:10490000302306F8013C06F1FF36921B2261CDF8F8
:1049100000A04B4603AA21464046FFF7FFFE0130A8
:1049200071D14FF0FF3004B0BDE8F08723F00403ED
:104930002360CDE72B682068191D2960050601D585
:104940001D6802E04106FBD51D8840486F2F14BF4B
:104950000A230823002184F843106668A660002E0D
:10496000B9DB216821F004012160002DB3D1002EB4
:10497000B1D11646BBE7236843F0200323603448D7
:10498000782784F84570296823680E1D2E601E065E
:1049900003D50D6804E02D48F3E75D06F9D50D88D1
:1049A000D90744BF43F0200323600DB11023D1E7A2
:1049B000236823F020032360F8E724480A23CCE788
:1049C0002B6826686169181D286035061B6801D5AB
:1049D000196002E07006FBD519800023236116469A
:1049E00095E72B681A1D2A601E6862680021304610
:1049F000FBF756FC08B1801B6060636823610023ED
:104A000084F8433083E72369324649464046D0471D
:104A1000013086D023689B0714D4E068039B98423A
:104A2000B8BF18467FE70123324649464046D04783
:104A300001303FF476AF0135E36803995B1AAB426E
:104A4000F1DCEAE7002504F11906F5E781500008DA
:104A500092500008B1F90C202DE9F04117070546E6
:104A60000C4656D44B68002B02DC0B6C002B3DDD52
:104A7000E66A002E3AD0002312F480522F68216A91
:104A80002B6025D0626DA389580705D56368D21ABB
:104A9000636B0BB1236CD21A216AE66A00232846A5
:104AA000B047411C24D00023636023692360A3899D
:104AB000DA0400D56065616B2F60B9B104F144037D
:104AC000994202D02846FFF7F7FB002363630DE00D
:104AD00001232846B047461C0246D4D12B68002B40
:104AE000D1D01D2B01D0162B2BD12F6000202FE011
:104AF0002A68B4F90C3042B11D2A01D0162A22D1FD
:104B00000023636023692360D5E762602269226025
:104B1000CEE70F69002FE9D093070E6808BF4B69F5
:104B20000F6018BF0023A6EB07088B60B8F1000FD9
:104B3000DCDD216AA66A43463A462846B04700288B
:104B400008DCB4F90C3043F04003A3814FF0FF3090
:104B5000BDE8F0810744A8EB0008E7E738B50B692A
:104B600005460C4613B90025284638BD18B1036A1E
:104B70000BB9FFF7ADF9B4F90C30002BF3D0626E2E
:104B8000D00704D4990502D4A06DFFF792FB284604
:104B90002146FFF75FFF636EDA070546E4D4A38979
:104BA0009B05E1D4A06DFFF785FBDDE770B50C46F2
:104BB000B1F90E10002996B015461E460DDAA389EC
:104BC00013F0800F4FF0000114BF40234FF48063B7
:104BD000002031602B6016B070BD6A4600F048F8C6
:104BE0000028ECDB019901F47041A1F50053594212
:104BF00059414FF48063EBE78B89F7B59D07064673
:104C00000C4607D504F14703236023610123636148
:104C100003B0F0BD01AB6A46FFF7C8FF009F054631
:104C200039463046FFF7B4FB48B9B4F90C309A0561
:104C3000EED423F0030343F00203A381E2E7A38948
:104C4000206043F08003A381019BC4E904075BB1AA
:104C5000B4F90E10304600F01DF828B1A38923F0F6
:104C6000030343F00103A381A3891D43A581CFE77B
:104C700038B5074D00230446084611462B6000F066
:104C800031F8431C02D12B6803B1236038BD00BF4B
:104C9000E402002038B5064D0023044608462B6088
:104CA00000F028F8431C02D12B6803B1236038BD03
:104CB000E402002038B5064D0023044608462B6068
:104CC00000F030F8431C02D12B6803B1236038BDDB
:104CD000E4020020024B58221A604FF0FF30704768
:104CE000E4020020024B58221A604FF0FF30704758
:104CF000E4020020024B58221A600020704700BFD7
:104D0000E4020020024B58221A604FF0FF30704737
:104D1000E4020020024B58221A604FF0FF30704727
:104D2000E4020020044A05491368002B08BF0B4623
:104D30001844106018467047F4020020F802002062
:104D40002DE9F04786468C460846089E154674466F
:104D50001946002B40F0C2808542B2FA82F245D952
:104D60004AB1C2F1200300FA02FC2EFA03F3954087
:104D700043EA0C0C94404FEA154EA8B2BCFBFEF877
:104D8000230C0EFB18CC08FB00F943EA0C439945B1
:104D900028D9EB1808F1FF3704D2994502D9A8F1B8
:104DA00002072B44A3EB0903A4B2B3FBFEFC0EFBEA
:104DB0001C330CFB00F044EA0344A04214D92C1924
:104DC0000CF1FF3304D2A04202D9ACF102032C440F
:104DD000241A43EA07401EB1D440002334607360B4
:104DE000BDE8F0874746DDE76346F1E792BB431B2A
:104DF00001214FEA154EAFB2B3FBFEFC200C0EFBB7
:104E00001C330CFB07F840EA0343984562D9EB18C2
:104E10000CF1FF3004D2984502D9ACF102002B44CA
:104E2000A3EB0803A4B2B3FBFEFC0EFB1C330CFB8C
:104E300007F744EA0344A7424ED92C190CF1FF337B
:104E400004D2A74202D9ACF102032C44E41B43EA8A
:104E50000040C0E7C2F1200320FA03F195409040E2
:104E60002EFA03F303434FEA154EAFB2B1FBFEFC3B
:104E70000EFB1C10190C0CFB07F841EA0041884599
:104E800004FA02F422D969180CF1FF3004D28845E3
:104E900002D9ACF102002944A1EB08019BB2B1FB9D
:104EA000FEFC0EFB1C110CFB07F743EA01439F427B
:104EB0000ED9EB180CF1FF3104D29F4202D9ACF1AC
:104EC00002012B44DB1B41EA004192E76046E3E725
:104ED0006146F7E76046A3E76346B7E7834206D932
:104EE00016B9002108467BE7C6E900E0F9E7B3FA06
:104EF00083F78FB9834201D3724508D8BEEB020411
:104F000060EB030301209C461EB9002168E7384688
:104F1000FAE7C6E9004CF8E7C7F1200CBB4022FADB
:104F20000CF41C432EFA0CF120FA0CF3B8400143A8
:104F30004FEA14490EFA07F5B3FBF9F81FFA84FE9D
:104F400009FB18300B0C08FB0EFA43EA00439A45A4
:104F500002FA07F240D9E31808F1FF3004D29A456B
:104F600002D9A8F102002344A3EB0A0389B2B3FBE0
:104F7000F9F809FB183308FB0EFE41EA03418E45A0
:104F80002CD9611808F1FF3304D28E4502D9A8F15B
:104F90000203214443EA0040A0FB0298A1EB0E016A
:104FA0004145CE46434602D306D14D4504D2B9EB26
:104FB000020E68EB04030138002EA6D0B5EB0E02FA
:104FC00061EB030101FA0CFC22FA07F34CEA03033C
:104FD000F940C6E9003198E74046C5E74346D9E7BE
:104FE000F8B500BFF8BC08BC9E467047F8B500BFD6
:084FF000F8BC08BC9E467047A6
:104FF800496E697469616C697A65642E2E2E0D009C
:1050080053656E743A203078253032782030782510
:105018003032780D0A000000526561643A20307819
:1050280025303278203078253032780D0A0D0A0084
:105038000000000001020304010203040607080936
:10504800010002000400060008000A000C0010001D
:10505800200040008000000108040204080101014A
:105068000101010307010000232D302B2000686C8B
:105078004C00656667454647003031323334353673
:1050880037383941424344454600303132333435AC
:0C509800363738396162636465660000D9
:0850A400FCB1FF7F01000000D8
:0450AC00990300085C
:0450B000750300087C
:1050B40001000000100000000090D0030090D00315
:1050C4000000000003000000A801002020000020D0
:1050D40000000000A8010020100200207802002037
:1050E40000000000000000000000000000000000BC
:1050F40000000000000000000000000000000000AC
:10510400000000000000000000000000000000009B
:0C5114000000000000000000000000008F
:0400000508003D654D
:00000001FF
